{
  "contractName": "Main",
  "abi": [
    {
      "inputs": [],
      "payable": false,
      "stateMutability": "nonpayable",
      "type": "constructor"
    },
    {
      "constant": true,
      "inputs": [
        {
          "internalType": "string",
          "name": "",
          "type": "string"
        },
        {
          "internalType": "uint256",
          "name": "",
          "type": "uint256"
        }
      ],
      "name": "HealthRecordsByFlat",
      "outputs": [
        {
          "internalType": "string",
          "name": "",
          "type": "string"
        }
      ],
      "payable": false,
      "stateMutability": "view",
      "type": "function"
    },
    {
      "constant": true,
      "inputs": [],
      "name": "admin",
      "outputs": [
        {
          "internalType": "address",
          "name": "",
          "type": "address"
        }
      ],
      "payable": false,
      "stateMutability": "view",
      "type": "function"
    },
    {
      "constant": true,
      "inputs": [
        {
          "internalType": "address",
          "name": "",
          "type": "address"
        }
      ],
      "name": "doctors",
      "outputs": [
        {
          "internalType": "address",
          "name": "docAdd",
          "type": "address"
        },
        {
          "internalType": "string",
          "name": "name",
          "type": "string"
        },
        {
          "internalType": "string",
          "name": "workPlace",
          "type": "string"
        },
        {
          "internalType": "string",
          "name": "family",
          "type": "string"
        }
      ],
      "payable": false,
      "stateMutability": "view",
      "type": "function"
    },
    {
      "constant": true,
      "inputs": [
        {
          "internalType": "string",
          "name": "",
          "type": "string"
        }
      ],
      "name": "families",
      "outputs": [
        {
          "internalType": "string",
          "name": "name",
          "type": "string"
        },
        {
          "internalType": "string",
          "name": "id",
          "type": "string"
        },
        {
          "internalType": "uint256",
          "name": "count",
          "type": "uint256"
        },
        {
          "internalType": "string",
          "name": "homeFlat",
          "type": "string"
        },
        {
          "internalType": "string",
          "name": "currentFlat",
          "type": "string"
        },
        {
          "internalType": "bool",
          "name": "infection",
          "type": "bool"
        }
      ],
      "payable": false,
      "stateMutability": "view",
      "type": "function"
    },
    {
      "constant": true,
      "inputs": [
        {
          "internalType": "string",
          "name": "",
          "type": "string"
        },
        {
          "internalType": "uint256",
          "name": "",
          "type": "uint256"
        }
      ],
      "name": "familyHealthRecords",
      "outputs": [
        {
          "internalType": "string",
          "name": "",
          "type": "string"
        }
      ],
      "payable": false,
      "stateMutability": "view",
      "type": "function"
    },
    {
      "constant": true,
      "inputs": [
        {
          "internalType": "string",
          "name": "",
          "type": "string"
        }
      ],
      "name": "flats",
      "outputs": [
        {
          "internalType": "string",
          "name": "id",
          "type": "string"
        },
        {
          "internalType": "uint256",
          "name": "total",
          "type": "uint256"
        },
        {
          "internalType": "uint256",
          "name": "active",
          "type": "uint256"
        },
        {
          "internalType": "string",
          "name": "coords",
          "type": "string"
        }
      ],
      "payable": false,
      "stateMutability": "view",
      "type": "function"
    },
    {
      "constant": true,
      "inputs": [
        {
          "internalType": "uint256",
          "name": "",
          "type": "uint256"
        },
        {
          "internalType": "uint256",
          "name": "",
          "type": "uint256"
        }
      ],
      "name": "flatsByPincode",
      "outputs": [
        {
          "internalType": "string",
          "name": "",
          "type": "string"
        }
      ],
      "payable": false,
      "stateMutability": "view",
      "type": "function"
    },
    {
      "constant": true,
      "inputs": [
        {
          "internalType": "string",
          "name": "",
          "type": "string"
        }
      ],
      "name": "healthRecords",
      "outputs": [
        {
          "internalType": "string",
          "name": "temperature",
          "type": "string"
        },
        {
          "internalType": "string",
          "name": "id",
          "type": "string"
        },
        {
          "internalType": "string",
          "name": "date",
          "type": "string"
        },
        {
          "internalType": "string",
          "name": "description",
          "type": "string"
        },
        {
          "internalType": "string",
          "name": "doc",
          "type": "string"
        }
      ],
      "payable": false,
      "stateMutability": "view",
      "type": "function"
    },
    {
      "constant": true,
      "inputs": [
        {
          "internalType": "address",
          "name": "",
          "type": "address"
        }
      ],
      "name": "lAdminPincodes",
      "outputs": [
        {
          "internalType": "uint256",
          "name": "",
          "type": "uint256"
        }
      ],
      "payable": false,
      "stateMutability": "view",
      "type": "function"
    },
    {
      "constant": true,
      "inputs": [
        {
          "internalType": "uint256",
          "name": "",
          "type": "uint256"
        }
      ],
      "name": "lAdmins",
      "outputs": [
        {
          "internalType": "address",
          "name": "ladminadd",
          "type": "address"
        },
        {
          "internalType": "uint256",
          "name": "aadhaar",
          "type": "uint256"
        },
        {
          "internalType": "uint256",
          "name": "pincode",
          "type": "uint256"
        }
      ],
      "payable": false,
      "stateMutability": "view",
      "type": "function"
    },
    {
      "constant": true,
      "inputs": [
        {
          "internalType": "string",
          "name": "",
          "type": "string"
        }
      ],
      "name": "reporters",
      "outputs": [
        {
          "internalType": "string",
          "name": "repId",
          "type": "string"
        },
        {
          "internalType": "string",
          "name": "Name",
          "type": "string"
        },
        {
          "internalType": "uint256",
          "name": "assigned_pincode",
          "type": "uint256"
        },
        {
          "internalType": "string",
          "name": "family",
          "type": "string"
        }
      ],
      "payable": false,
      "stateMutability": "view",
      "type": "function"
    },
    {
      "constant": false,
      "inputs": [
        {
          "internalType": "address",
          "name": "_address",
          "type": "address"
        },
        {
          "internalType": "uint256",
          "name": "_aadhaar",
          "type": "uint256"
        },
        {
          "internalType": "uint256",
          "name": "_pincode",
          "type": "uint256"
        }
      ],
      "name": "createLocalAdmin",
      "outputs": [],
      "payable": false,
      "stateMutability": "nonpayable",
      "type": "function"
    },
    {
      "constant": false,
      "inputs": [
        {
          "internalType": "string",
          "name": "_id",
          "type": "string"
        },
        {
          "internalType": "string",
          "name": "_name",
          "type": "string"
        },
        {
          "internalType": "uint256",
          "name": "_pincode",
          "type": "uint256"
        },
        {
          "internalType": "string",
          "name": "_famid",
          "type": "string"
        }
      ],
      "name": "createReporter",
      "outputs": [],
      "payable": false,
      "stateMutability": "nonpayable",
      "type": "function"
    },
    {
      "constant": false,
      "inputs": [
        {
          "internalType": "uint256",
          "name": "_pincode",
          "type": "uint256"
        },
        {
          "internalType": "address",
          "name": "_address",
          "type": "address"
        },
        {
          "internalType": "string",
          "name": "_name",
          "type": "string"
        },
        {
          "internalType": "string",
          "name": "_workarea",
          "type": "string"
        },
        {
          "internalType": "string",
          "name": "_famid",
          "type": "string"
        }
      ],
      "name": "createDoctor",
      "outputs": [],
      "payable": false,
      "stateMutability": "nonpayable",
      "type": "function"
    },
    {
      "constant": false,
      "inputs": [
        {
          "internalType": "uint256",
          "name": "_pincode",
          "type": "uint256"
        },
        {
          "internalType": "string",
          "name": "_name",
          "type": "string"
        },
        {
          "internalType": "string",
          "name": "_id",
          "type": "string"
        },
        {
          "internalType": "uint256",
          "name": "_count",
          "type": "uint256"
        },
        {
          "internalType": "string",
          "name": "_home",
          "type": "string"
        },
        {
          "internalType": "string",
          "name": "_curr",
          "type": "string"
        }
      ],
      "name": "createFamily",
      "outputs": [],
      "payable": false,
      "stateMutability": "nonpayable",
      "type": "function"
    },
    {
      "constant": false,
      "inputs": [
        {
          "internalType": "uint256",
          "name": "_pincode",
          "type": "uint256"
        },
        {
          "internalType": "string",
          "name": "_id",
          "type": "string"
        },
        {
          "internalType": "uint256",
          "name": "_total",
          "type": "uint256"
        },
        {
          "internalType": "string",
          "name": "_coords",
          "type": "string"
        }
      ],
      "name": "createFlat",
      "outputs": [],
      "payable": false,
      "stateMutability": "nonpayable",
      "type": "function"
    },
    {
      "constant": true,
      "inputs": [
        {
          "internalType": "uint256",
          "name": "_pincode",
          "type": "uint256"
        }
      ],
      "name": "getFlatsByPin",
      "outputs": [
        {
          "internalType": "string[]",
          "name": "",
          "type": "string[]"
        }
      ],
      "payable": false,
      "stateMutability": "view",
      "type": "function"
    },
    {
      "constant": true,
      "inputs": [
        {
          "internalType": "string",
          "name": "_flat",
          "type": "string"
        }
      ],
      "name": "getHealthRecordsByFlat",
      "outputs": [
        {
          "internalType": "string[]",
          "name": "",
          "type": "string[]"
        }
      ],
      "payable": false,
      "stateMutability": "view",
      "type": "function"
    },
    {
      "constant": false,
      "inputs": [
        {
          "internalType": "string",
          "name": "_flat",
          "type": "string"
        },
        {
          "internalType": "string",
          "name": "_family",
          "type": "string"
        },
        {
          "internalType": "string",
          "name": "_id",
          "type": "string"
        },
        {
          "internalType": "string",
          "name": "_temp",
          "type": "string"
        },
        {
          "internalType": "string",
          "name": "_date",
          "type": "string"
        },
        {
          "internalType": "string",
          "name": "_desc",
          "type": "string"
        }
      ],
      "name": "createHealthRecord",
      "outputs": [],
      "payable": false,
      "stateMutability": "nonpayable",
      "type": "function"
    },
    {
      "constant": false,
      "inputs": [
        {
          "internalType": "string",
          "name": "_hId",
          "type": "string"
        },
        {
          "internalType": "string",
          "name": "_flat",
          "type": "string"
        },
        {
          "internalType": "string",
          "name": "_family",
          "type": "string"
        },
        {
          "internalType": "string",
          "name": "_hRec",
          "type": "string"
        },
        {
          "internalType": "bool",
          "name": "_stat",
          "type": "bool"
        }
      ],
      "name": "flagCovidStatus",
      "outputs": [],
      "payable": false,
      "stateMutability": "nonpayable",
      "type": "function"
    },
    {
      "constant": false,
      "inputs": [
        {
          "internalType": "uint256",
          "name": "_pincode",
          "type": "uint256"
        },
        {
          "internalType": "string",
          "name": "_newLocation",
          "type": "string"
        },
        {
          "internalType": "string",
          "name": "_id",
          "type": "string"
        }
      ],
      "name": "relocation",
      "outputs": [],
      "payable": false,
      "stateMutability": "nonpayable",
      "type": "function"
    }
  ],
  "bytecode": "0x608060405234801561001057600080fd5b50336000806101000a81548173ffffffffffffffffffffffffffffffffffffffff021916908373ffffffffffffffffffffffffffffffffffffffff1602179055506133ae806100606000396000f3fe608060405234801561001057600080fd5b50600436106101375760003560e01c80637449c3ec116100b8578063dff89cdc1161007c578063dff89cdc146103a5578063e20a706c146103c1578063e2d8a80c146103dd578063e9561fd514610410578063f851a44014610440578063fd61514a1461045e57610137565b80637449c3ec146102d75780639c1e08aa14610307578063a9583c2214610323578063ae834de014610356578063b74b084d1461038957610137565b806337386169116100ff57806337386169146101dc57806340d3226f1461021157806347e889151461024557806358bbd7c41461027557806372153884146102a557610137565b80630e5fa1a91461013c57806311dc9eed1461015857806317acffb5146101745780631c5b960d146101a457806327758dbc146101c0575b600080fd5b610156600480360361015191908101906127d1565b61048e565b005b610172600480360361016d9190810190612a37565b6105db565b005b61018e600480360361018991908101906128d0565b610776565b60405161019b9190612f0b565b60405180910390f35b6101be60048036036101b991908101906126b8565b610872565b005b6101da60048036036101d591908101906129b8565b610a18565b005b6101f660048036036101f1919081019061255f565b610af7565b6040516102089695949392919061301f565b60405180910390f35b61022b6004803603610226919081019061255f565b610db6565b60405161023c959493929190612f4f565b60405180910390f35b61025f600480360361025a91908101906125a0565b6110fa565b60405161026c9190612f0b565b60405180910390f35b61028f600480360361028a91908101906124e7565b611201565b60405161029c919061316f565b60405180910390f35b6102bf60048036036102ba91908101906128d0565b611219565b6040516102ce93929190612ed4565b60405180910390f35b6102f160048036036102ec919081019061287c565b611263565b6040516102fe9190612f2d565b60405180910390f35b610321600480360361031c9190810190612510565b61133f565b005b61033d600480360361033891908101906124e7565b61155e565b60405161034d9493929190612e7a565b60405180910390f35b610370600480360361036b919081019061255f565b611776565b6040516103809493929190612fc5565b60405180910390f35b6103a3600480360361039e9190810190612b20565b611984565b005b6103bf60048036036103ba91908101906128f9565b611b0f565b005b6103db60048036036103d691908101906125e1565b611cd1565b005b6103f760048036036103f2919081019061255f565b611f17565b604051610407949392919061309c565b60405180910390f35b61042a6004803603610425919081019061287c565b61208d565b6040516104379190612f2d565b60405180910390f35b610448612169565b6040516104559190612e5f565b60405180910390f35b61047860048036036104739190810190612bb3565b61218e565b6040516104859190612f2d565b60405180910390f35b3373ffffffffffffffffffffffffffffffffffffffff166008600084815260200190815260200160002060000160009054906101000a900473ffffffffffffffffffffffffffffffffffffffff1673ffffffffffffffffffffffffffffffffffffffff1614610532576040517f08c379a00000000000000000000000000000000000000000000000000000000081526004016105299061310f565b60405180910390fd5b6040518060800160405280858152602001848152602001838152602001828152506007856040516105639190612e48565b9081526020016040518091039020600082015181600001908051906020019061058d929190612254565b5060208201518160010190805190602001906105aa929190612254565b506040820151816002015560608201518160030190805190602001906105d1929190612254565b5090505050505050565b3373ffffffffffffffffffffffffffffffffffffffff166008600088815260200190815260200160002060000160009054906101000a900473ffffffffffffffffffffffffffffffffffffffff1673ffffffffffffffffffffffffffffffffffffffff161461067f576040517f08c379a00000000000000000000000000000000000000000000000000000000081526004016106769061310f565b60405180910390fd5b6040518060c00160405280868152602001858152602001848152602001838152602001828152602001600015158152506004856040516106bf9190612e48565b908152602001604051809103902060008201518160000190805190602001906106e9929190612254565b506020820151816001019080519060200190610706929190612254565b5060408201518160020155606082015181600301908051906020019061072d929190612254565b50608082015181600401908051906020019061074a929190612254565b5060a08201518160050160006101000a81548160ff021916908315150217905550905050505050505050565b606060016000838152602001908152602001600020805480602002602001604051908101604052809291908181526020016000905b82821015610867578382906000526020600020018054600181600116156101000203166002900480601f0160208091040260200160405190810160405280929190818152602001828054600181600116156101000203166002900480156108535780601f1061082857610100808354040283529160200191610853565b820191906000526020600020905b81548152906001019060200180831161083657829003601f168201915b5050505050815260200190600101906107ab565b505050509050919050565b6040518060a00160405280848152602001858152602001838152602001828152602001604051806020016040528060008152508152506003856040516108b89190612e48565b908152602001604051809103902060008201518160000190805190602001906108e2929190612254565b5060208201518160010190805190602001906108ff929190612254565b50604082015181600201908051906020019061091c929190612254565b506060820151816003019080519060200190610939929190612254565b506080820151816004019080519060200190610956929190612254565b50905050600a8560405161096a9190612e48565b90815260200160405180910390208490806001815401808255809150509060018203906000526020600020016000909192909190915090805190602001906109b39291906122d4565b50506002866040516109c59190612e48565b9081526020016040518091039020849080600181540180825580915050906001820390600052602060002001600090919290919091509080519060200190610a0e9291906122d4565b5050505050505050565b3373ffffffffffffffffffffffffffffffffffffffff166008600085815260200190815260200160002060000160009054906101000a900473ffffffffffffffffffffffffffffffffffffffff1673ffffffffffffffffffffffffffffffffffffffff1614610abc576040517f08c379a0000000000000000000000000000000000000000000000000000000008152600401610ab39061310f565b60405180910390fd5b81600482604051610acd9190612e48565b90815260200160405180910390206004019080519060200190610af19291906122d4565b50505050565b600481805160208101820180518482526020830160208501208183528095505050505050600091509050806000018054600181600116156101000203166002900480601f016020809104026020016040519081016040528092919081815260200182805460018160011615610100020316600290048015610bb95780601f10610b8e57610100808354040283529160200191610bb9565b820191906000526020600020905b815481529060010190602001808311610b9c57829003601f168201915b505050505090806001018054600181600116156101000203166002900480601f016020809104026020016040519081016040528092919081815260200182805460018160011615610100020316600290048015610c575780601f10610c2c57610100808354040283529160200191610c57565b820191906000526020600020905b815481529060010190602001808311610c3a57829003601f168201915b505050505090806002015490806003018054600181600116156101000203166002900480601f016020809104026020016040519081016040528092919081815260200182805460018160011615610100020316600290048015610cfb5780601f10610cd057610100808354040283529160200191610cfb565b820191906000526020600020905b815481529060010190602001808311610cde57829003601f168201915b505050505090806004018054600181600116156101000203166002900480601f016020809104026020016040519081016040528092919081815260200182805460018160011615610100020316600290048015610d995780601f10610d6e57610100808354040283529160200191610d99565b820191906000526020600020905b815481529060010190602001808311610d7c57829003601f168201915b5050505050908060050160009054906101000a900460ff16905086565b600381805160208101820180518482526020830160208501208183528095505050505050600091509050806000018054600181600116156101000203166002900480601f016020809104026020016040519081016040528092919081815260200182805460018160011615610100020316600290048015610e785780601f10610e4d57610100808354040283529160200191610e78565b820191906000526020600020905b815481529060010190602001808311610e5b57829003601f168201915b505050505090806001018054600181600116156101000203166002900480601f016020809104026020016040519081016040528092919081815260200182805460018160011615610100020316600290048015610f165780601f10610eeb57610100808354040283529160200191610f16565b820191906000526020600020905b815481529060010190602001808311610ef957829003601f168201915b505050505090806002018054600181600116156101000203166002900480601f016020809104026020016040519081016040528092919081815260200182805460018160011615610100020316600290048015610fb45780601f10610f8957610100808354040283529160200191610fb4565b820191906000526020600020905b815481529060010190602001808311610f9757829003601f168201915b505050505090806003018054600181600116156101000203166002900480601f0160208091040260200160405190810160405280929190818152602001828054600181600116156101000203166002900480156110525780601f1061102757610100808354040283529160200191611052565b820191906000526020600020905b81548152906001019060200180831161103557829003601f168201915b505050505090806004018054600181600116156101000203166002900480601f0160208091040260200160405190810160405280929190818152602001828054600181600116156101000203166002900480156110f05780601f106110c5576101008083540402835291602001916110f0565b820191906000526020600020905b8154815290600101906020018083116110d357829003601f168201915b5050505050905085565b606060028260405161110c9190612e48565b9081526020016040518091039020805480602002602001604051908101604052809291908181526020016000905b828210156111f6578382906000526020600020018054600181600116156101000203166002900480601f0160208091040260200160405190810160405280929190818152602001828054600181600116156101000203166002900480156111e25780601f106111b7576101008083540402835291602001916111e2565b820191906000526020600020905b8154815290600101906020018083116111c557829003601f168201915b50505050508152602001906001019061113a565b505050509050919050565b60096020528060005260406000206000915090505481565b60086020528060005260406000206000915090508060000160009054906101000a900473ffffffffffffffffffffffffffffffffffffffff16908060010154908060020154905083565b600a82805160208101820180518482526020830160208501208183528095505050505050818154811061129257fe5b90600052602060002001600091509150508054600181600116156101000203166002900480601f0160208091040260200160405190810160405280929190818152602001828054600181600116156101000203166002900480156113375780601f1061130c57610100808354040283529160200191611337565b820191906000526020600020905b81548152906001019060200180831161131a57829003601f168201915b505050505081565b3373ffffffffffffffffffffffffffffffffffffffff166000809054906101000a900473ffffffffffffffffffffffffffffffffffffffff1673ffffffffffffffffffffffffffffffffffffffff16146113ce576040517f08c379a00000000000000000000000000000000000000000000000000000000081526004016113c5906130ef565b60405180910390fd5b600073ffffffffffffffffffffffffffffffffffffffff166008600083815260200190815260200160002060000160009054906101000a900473ffffffffffffffffffffffffffffffffffffffff1673ffffffffffffffffffffffffffffffffffffffff1614611473576040517f08c379a000000000000000000000000000000000000000000000000000000000815260040161146a9061312f565b60405180910390fd5b60405180606001604052808473ffffffffffffffffffffffffffffffffffffffff168152602001838152602001828152506008600083815260200190815260200160002060008201518160000160006101000a81548173ffffffffffffffffffffffffffffffffffffffff021916908373ffffffffffffffffffffffffffffffffffffffff160217905550602082015181600101556040820151816002015590505080600960008573ffffffffffffffffffffffffffffffffffffffff1673ffffffffffffffffffffffffffffffffffffffff16815260200190815260200160002081905550505050565b60066020528060005260406000206000915090508060000160009054906101000a900473ffffffffffffffffffffffffffffffffffffffff1690806001018054600181600116156101000203166002900480601f0160208091040260200160405190810160405280929190818152602001828054600181600116156101000203166002900480156116305780601f1061160557610100808354040283529160200191611630565b820191906000526020600020905b81548152906001019060200180831161161357829003601f168201915b505050505090806002018054600181600116156101000203166002900480601f0160208091040260200160405190810160405280929190818152602001828054600181600116156101000203166002900480156116ce5780601f106116a3576101008083540402835291602001916116ce565b820191906000526020600020905b8154815290600101906020018083116116b157829003601f168201915b505050505090806003018054600181600116156101000203166002900480601f01602080910402602001604051908101604052809291908181526020018280546001816001161561010002031660029004801561176c5780601f106117415761010080835404028352916020019161176c565b820191906000526020600020905b81548152906001019060200180831161174f57829003601f168201915b5050505050905084565b600781805160208101820180518482526020830160208501208183528095505050505050600091509050806000018054600181600116156101000203166002900480601f0160208091040260200160405190810160405280929190818152602001828054600181600116156101000203166002900480156118385780601f1061180d57610100808354040283529160200191611838565b820191906000526020600020905b81548152906001019060200180831161181b57829003601f168201915b505050505090806001018054600181600116156101000203166002900480601f0160208091040260200160405190810160405280929190818152602001828054600181600116156101000203166002900480156118d65780601f106118ab576101008083540402835291602001916118d6565b820191906000526020600020905b8154815290600101906020018083116118b957829003601f168201915b505050505090806002015490806003018054600181600116156101000203166002900480601f01602080910402602001604051908101604052809291908181526020018280546001816001161561010002031660029004801561197a5780601f1061194f5761010080835404028352916020019161197a565b820191906000526020600020905b81548152906001019060200180831161195d57829003601f168201915b5050505050905084565b3373ffffffffffffffffffffffffffffffffffffffff166008600086815260200190815260200160002060000160009054906101000a900473ffffffffffffffffffffffffffffffffffffffff1673ffffffffffffffffffffffffffffffffffffffff1614611a28576040517f08c379a0000000000000000000000000000000000000000000000000000000008152600401611a1f9061310f565b60405180910390fd5b60405180608001604052808481526020018381526020016000815260200182815250600584604051611a5a9190612e48565b90815260200160405180910390206000820151816000019080519060200190611a84929190612254565b5060208201518160010155604082015181600201556060820151816003019080519060200190611ab5929190612254565b5090505060016000858152602001908152602001600020839080600181540180825580915050906001820390600052602060002001600090919290919091509080519060200190611b079291906122d4565b505050505050565b3373ffffffffffffffffffffffffffffffffffffffff166008600087815260200190815260200160002060000160009054906101000a900473ffffffffffffffffffffffffffffffffffffffff1673ffffffffffffffffffffffffffffffffffffffff1614611bb3576040517f08c379a0000000000000000000000000000000000000000000000000000000008152600401611baa9061310f565b60405180910390fd5b60405180608001604052808573ffffffffffffffffffffffffffffffffffffffff16815260200184815260200183815260200182815250600660008673ffffffffffffffffffffffffffffffffffffffff1673ffffffffffffffffffffffffffffffffffffffff16815260200190815260200160002060008201518160000160006101000a81548173ffffffffffffffffffffffffffffffffffffffff021916908373ffffffffffffffffffffffffffffffffffffffff1602179055506020820151816001019080519060200190611c8c929190612254565b506040820151816002019080519060200190611ca9929190612254565b506060820151816003019080519060200190611cc6929190612254565b509050505050505050565b3373ffffffffffffffffffffffffffffffffffffffff16600660003373ffffffffffffffffffffffffffffffffffffffff1673ffffffffffffffffffffffffffffffffffffffff16815260200190815260200160002060000160009054906101000a900473ffffffffffffffffffffffffffffffffffffffff1673ffffffffffffffffffffffffffffffffffffffff1614611da1576040517f08c379a0000000000000000000000000000000000000000000000000000000008152600401611d989061314f565b60405180910390fd5b600660003373ffffffffffffffffffffffffffffffffffffffff1673ffffffffffffffffffffffffffffffffffffffff168152602001908152602001600020600101600386604051611df39190612e48565b90815260200160405180910390206004019080546001816001161561010002031660029004611e23929190612354565b5080600484604051611e359190612e48565b908152602001604051809103902060050160006101000a81548160ff021916908315150217905550600115158115151415611ebf57600483604051611e7a9190612e48565b908152602001604051809103902060020154600585604051611e9c9190612e48565b908152602001604051809103902060020160008282540192505081905550611f10565b600483604051611ecf9190612e48565b908152602001604051809103902060020154600585604051611ef19190612e48565b9081526020016040518091039020600201600082825403925050819055505b5050505050565b600581805160208101820180518482526020830160208501208183528095505050505050600091509050806000018054600181600116156101000203166002900480601f016020809104026020016040519081016040528092919081815260200182805460018160011615610100020316600290048015611fd95780601f10611fae57610100808354040283529160200191611fd9565b820191906000526020600020905b815481529060010190602001808311611fbc57829003601f168201915b505050505090806001015490806002015490806003018054600181600116156101000203166002900480601f0160208091040260200160405190810160405280929190818152602001828054600181600116156101000203166002900480156120835780601f1061205857610100808354040283529160200191612083565b820191906000526020600020905b81548152906001019060200180831161206657829003601f168201915b5050505050905084565b60028280516020810182018051848252602083016020850120818352809550505050505081815481106120bc57fe5b90600052602060002001600091509150508054600181600116156101000203166002900480601f0160208091040260200160405190810160405280929190818152602001828054600181600116156101000203166002900480156121615780601f1061213657610100808354040283529160200191612161565b820191906000526020600020905b81548152906001019060200180831161214457829003601f168201915b505050505081565b6000809054906101000a900473ffffffffffffffffffffffffffffffffffffffff1681565b600160205281600052604060002081815481106121a757fe5b90600052602060002001600091509150508054600181600116156101000203166002900480601f01602080910402602001604051908101604052809291908181526020018280546001816001161561010002031660029004801561224c5780601f106122215761010080835404028352916020019161224c565b820191906000526020600020905b81548152906001019060200180831161222f57829003601f168201915b505050505081565b828054600181600116156101000203166002900490600052602060002090601f016020900481019282601f1061229557805160ff19168380011785556122c3565b828001600101855582156122c3579182015b828111156122c25782518255916020019190600101906122a7565b5b5090506122d091906123db565b5090565b828054600181600116156101000203166002900490600052602060002090601f016020900481019282601f1061231557805160ff1916838001178555612343565b82800160010185558215612343579182015b82811115612342578251825591602001919060010190612327565b5b50905061235091906123db565b5090565b828054600181600116156101000203166002900490600052602060002090601f016020900481019282601f1061238d57805485556123ca565b828001600101855582156123ca57600052602060002091601f016020900482015b828111156123c95782548255916001019190600101906123ae565b5b5090506123d791906123db565b5090565b6123fd91905b808211156123f95760008160009055506001016123e1565b5090565b90565b60008135905061240f81613326565b92915050565b6000813590506124248161333d565b92915050565b600082601f83011261243b57600080fd5b813561244e612449826131b7565b61318a565b9150808252602083016020830185838301111561246a57600080fd5b6124758382846132d3565b50505092915050565b600082601f83011261248f57600080fd5b81356124a261249d826131e3565b61318a565b915080825260208301602083018583830111156124be57600080fd5b6124c98382846132d3565b50505092915050565b6000813590506124e181613354565b92915050565b6000602082840312156124f957600080fd5b600061250784828501612400565b91505092915050565b60008060006060848603121561252557600080fd5b600061253386828701612400565b9350506020612544868287016124d2565b9250506040612555868287016124d2565b9150509250925092565b60006020828403121561257157600080fd5b600082013567ffffffffffffffff81111561258b57600080fd5b6125978482850161242a565b91505092915050565b6000602082840312156125b257600080fd5b600082013567ffffffffffffffff8111156125cc57600080fd5b6125d88482850161247e565b91505092915050565b600080600080600060a086880312156125f957600080fd5b600086013567ffffffffffffffff81111561261357600080fd5b61261f8882890161247e565b955050602086013567ffffffffffffffff81111561263c57600080fd5b6126488882890161247e565b945050604086013567ffffffffffffffff81111561266557600080fd5b6126718882890161247e565b935050606086013567ffffffffffffffff81111561268e57600080fd5b61269a8882890161247e565b92505060806126ab88828901612415565b9150509295509295909350565b60008060008060008060c087890312156126d157600080fd5b600087013567ffffffffffffffff8111156126eb57600080fd5b6126f789828a0161247e565b965050602087013567ffffffffffffffff81111561271457600080fd5b61272089828a0161247e565b955050604087013567ffffffffffffffff81111561273d57600080fd5b61274989828a0161247e565b945050606087013567ffffffffffffffff81111561276657600080fd5b61277289828a0161247e565b935050608087013567ffffffffffffffff81111561278f57600080fd5b61279b89828a0161247e565b92505060a087013567ffffffffffffffff8111156127b857600080fd5b6127c489828a0161247e565b9150509295509295509295565b600080600080608085870312156127e757600080fd5b600085013567ffffffffffffffff81111561280157600080fd5b61280d8782880161247e565b945050602085013567ffffffffffffffff81111561282a57600080fd5b6128368782880161247e565b9350506040612847878288016124d2565b925050606085013567ffffffffffffffff81111561286457600080fd5b6128708782880161247e565b91505092959194509250565b6000806040838503121561288f57600080fd5b600083013567ffffffffffffffff8111156128a957600080fd5b6128b58582860161242a565b92505060206128c6858286016124d2565b9150509250929050565b6000602082840312156128e257600080fd5b60006128f0848285016124d2565b91505092915050565b600080600080600060a0868803121561291157600080fd5b600061291f888289016124d2565b955050602061293088828901612400565b945050604086013567ffffffffffffffff81111561294d57600080fd5b6129598882890161247e565b935050606086013567ffffffffffffffff81111561297657600080fd5b6129828882890161247e565b925050608086013567ffffffffffffffff81111561299f57600080fd5b6129ab8882890161247e565b9150509295509295909350565b6000806000606084860312156129cd57600080fd5b60006129db868287016124d2565b935050602084013567ffffffffffffffff8111156129f857600080fd5b612a048682870161247e565b925050604084013567ffffffffffffffff811115612a2157600080fd5b612a2d8682870161247e565b9150509250925092565b60008060008060008060c08789031215612a5057600080fd5b6000612a5e89828a016124d2565b965050602087013567ffffffffffffffff811115612a7b57600080fd5b612a8789828a0161247e565b955050604087013567ffffffffffffffff811115612aa457600080fd5b612ab089828a0161247e565b9450506060612ac189828a016124d2565b935050608087013567ffffffffffffffff811115612ade57600080fd5b612aea89828a0161247e565b92505060a087013567ffffffffffffffff811115612b0757600080fd5b612b1389828a0161247e565b9150509295509295509295565b60008060008060808587031215612b3657600080fd5b6000612b44878288016124d2565b945050602085013567ffffffffffffffff811115612b6157600080fd5b612b6d8782880161247e565b9350506040612b7e878288016124d2565b925050606085013567ffffffffffffffff811115612b9b57600080fd5b612ba78782880161247e565b91505092959194509250565b60008060408385031215612bc657600080fd5b6000612bd4858286016124d2565b9250506020612be5858286016124d2565b9150509250929050565b6000612bfb8383612cc7565b905092915050565b612c0c8161328b565b82525050565b6000612c1d8261321f565b612c27818561324d565b935083602082028501612c398561320f565b8060005b85811015612c755784840389528151612c568582612bef565b9450612c6183613240565b925060208a01995050600181019050612c3d565b50829750879550505050505092915050565b612c908161329d565b82525050565b6000612ca182613235565b612cab8185613280565b9350612cbb8185602086016132e2565b80840191505092915050565b6000612cd28261322a565b612cdc818561325e565b9350612cec8185602086016132e2565b612cf581613315565b840191505092915050565b6000612d0b8261322a565b612d15818561326f565b9350612d258185602086016132e2565b612d2e81613315565b840191505092915050565b6000612d46600e8361326f565b91507f4163636573732044656e696564210000000000000000000000000000000000006000830152602082019050919050565b6000612d86600d8361326f565b91507f4163636573732044656e696564000000000000000000000000000000000000006000830152602082019050919050565b6000612dc6601d8361326f565b91507f4c6f63616c2041646d696e20494420616c7265616479206578697374210000006000830152602082019050919050565b6000612e06600d8361326f565b91507f4163636573732064656e696564000000000000000000000000000000000000006000830152602082019050919050565b612e42816132c9565b82525050565b6000612e548284612c96565b915081905092915050565b6000602082019050612e746000830184612c03565b92915050565b6000608082019050612e8f6000830187612c03565b8181036020830152612ea18186612d00565b90508181036040830152612eb58185612d00565b90508181036060830152612ec98184612d00565b905095945050505050565b6000606082019050612ee96000830186612c03565b612ef66020830185612e39565b612f036040830184612e39565b949350505050565b60006020820190508181036000830152612f258184612c12565b905092915050565b60006020820190508181036000830152612f478184612d00565b905092915050565b600060a0820190508181036000830152612f698188612d00565b90508181036020830152612f7d8187612d00565b90508181036040830152612f918186612d00565b90508181036060830152612fa58185612d00565b90508181036080830152612fb98184612d00565b90509695505050505050565b60006080820190508181036000830152612fdf8187612d00565b90508181036020830152612ff38186612d00565b90506130026040830185612e39565b81810360608301526130148184612d00565b905095945050505050565b600060c08201905081810360008301526130398189612d00565b9050818103602083015261304d8188612d00565b905061305c6040830187612e39565b818103606083015261306e8186612d00565b905081810360808301526130828185612d00565b905061309160a0830184612c87565b979650505050505050565b600060808201905081810360008301526130b68187612d00565b90506130c56020830186612e39565b6130d26040830185612e39565b81810360608301526130e48184612d00565b905095945050505050565b6000602082019050818103600083015261310881612d39565b9050919050565b6000602082019050818103600083015261312881612d79565b9050919050565b6000602082019050818103600083015261314881612db9565b9050919050565b6000602082019050818103600083015261316881612df9565b9050919050565b60006020820190506131846000830184612e39565b92915050565b6000604051905081810181811067ffffffffffffffff821117156131ad57600080fd5b8060405250919050565b600067ffffffffffffffff8211156131ce57600080fd5b601f19601f8301169050602081019050919050565b600067ffffffffffffffff8211156131fa57600080fd5b601f19601f8301169050602081019050919050565b6000819050602082019050919050565b600081519050919050565b600081519050919050565b600081519050919050565b6000602082019050919050565b600082825260208201905092915050565b600082825260208201905092915050565b600082825260208201905092915050565b600081905092915050565b6000613296826132a9565b9050919050565b60008115159050919050565b600073ffffffffffffffffffffffffffffffffffffffff82169050919050565b6000819050919050565b82818337600083830152505050565b60005b838110156133005780820151818401526020810190506132e5565b8381111561330f576000848401525b50505050565b6000601f19601f8301169050919050565b61332f8161328b565b811461333a57600080fd5b50565b6133468161329d565b811461335157600080fd5b50565b61335d816132c9565b811461336857600080fd5b5056fea365627a7a723158204ee72f7009a42abf1fe2d94ec8d920fd39e673265599b9f968fd3c6d41a376306c6578706572696d656e74616cf564736f6c63430005100040",
  "source": "pragma solidity ^0.5.0;\r\npragma experimental ABIEncoderV2;\r\n\r\ncontract Main\r\n{\r\n    address public admin;\r\n    struct localAdmin\r\n    {\r\n        address ladminadd;\r\n        uint aadhaar;\r\n        uint pincode;\r\n    }\r\n    struct Reporter\r\n    {\r\n        string repId;\r\n        string Name;\r\n        uint assigned_pincode;\r\n        string family;\r\n    }\r\n    struct Doctor\r\n    {\r\n        address docAdd;\r\n        string name;\r\n        string workPlace;\r\n        string family;\r\n    }\r\n    struct HealthRecord\r\n    {\r\n        string temperature;\r\n        string id;\r\n        string date;\r\n        string description;\r\n        string doc;\r\n    }\r\n    struct Family\r\n    {\r\n        string name;\r\n        string id;\r\n        uint count;\r\n        string homeFlat;\r\n        string currentFlat;\r\n        bool infection;\r\n    }\r\n    struct Flat\r\n    {\r\n        string id;\r\n        uint total;\r\n        uint active;\r\n        string coords;\r\n    }\r\n    mapping(uint=>string[]) public flatsByPincode;\r\n    mapping(string=>string[]) public HealthRecordsByFlat;\r\n    mapping(string=>HealthRecord) public healthRecords;\r\n    mapping(string=>Family) public families;\r\n    mapping(string=>Flat) public flats;\r\n    mapping(address=>Doctor) public doctors;\r\n    mapping(string=>Reporter) public reporters;\r\n    mapping(uint=>localAdmin) public lAdmins;\r\n    mapping(address=>uint) public lAdminPincodes;\r\n    mapping(string=>string[]) public familyHealthRecords;\r\n    constructor() public\r\n    {\r\n        admin=msg.sender;\r\n    }\r\n\r\n    function createLocalAdmin(address _address,uint _aadhaar,uint _pincode) public\r\n    {\r\n        require(admin==msg.sender,\"Access Denied!\");\r\n        require(lAdmins[_pincode].ladminadd==address(0),\"Local Admin ID already exist!\");\r\n        lAdmins[_pincode]=localAdmin(_address,_aadhaar,_pincode);\r\n        lAdminPincodes[_address]=_pincode;\r\n    }\r\n    function createReporter(string memory _id,string memory _name,uint _pincode,string memory _famid) public\r\n    {\r\n        require(lAdmins[_pincode].ladminadd==msg.sender,\"Access Denied\");\r\n        reporters[_id]=Reporter(_id,_name,_pincode,_famid);\r\n    }\r\n    function createDoctor(uint _pincode,address _address,string memory _name,string memory _workarea,string memory _famid) public\r\n    {\r\n        require(lAdmins[_pincode].ladminadd==msg.sender,\"Access Denied\");\r\n        doctors[_address]=Doctor(_address,_name,_workarea,_famid);\r\n    }\r\n    function createFamily(uint _pincode,string memory _name,string memory _id,uint _count,string memory _home,string memory _curr) public\r\n    {\r\n        require(lAdmins[_pincode].ladminadd==msg.sender,\"Access Denied\");\r\n        families[_id]=Family(_name,_id,_count,_home,_curr,false);\r\n    }\r\n    function createFlat(uint _pincode,string memory _id,uint _total,string memory _coords) public\r\n    {\r\n        require(lAdmins[_pincode].ladminadd==msg.sender,\"Access Denied\");\r\n        flats[_id]=Flat(_id,_total,0,_coords);\r\n        flatsByPincode[_pincode].push(_id);\r\n    }\r\n    function getFlatsByPin(uint _pincode) public view returns(string [] memory)\r\n    {\r\n        return(flatsByPincode[_pincode]);\r\n    }\r\n    function getHealthRecordsByFlat(string memory _flat) public view returns(string [] memory)\r\n    {\r\n        return(HealthRecordsByFlat[_flat]);\r\n    }\r\n    function createHealthRecord(string memory _flat,string memory _family,string memory _id,string memory _temp,string memory _date,string memory _desc) public\r\n    {\r\n        healthRecords[_id]=HealthRecord(_temp,_id,_date,_desc,'');\r\n        familyHealthRecords[_family].push(_id);\r\n        HealthRecordsByFlat[_flat].push(_id);\r\n    }\r\n    function flagCovidStatus(string memory _hId,string memory _flat,string memory _family,string memory _hRec,bool _stat) public\r\n    {\r\n        require(doctors[msg.sender].docAdd==msg.sender,\"Access denied\");\r\n        healthRecords[_hId].doc=doctors[msg.sender].name;\r\n        families[_family].infection=_stat;\r\n        if(_stat==true){\r\n            flats[_flat].active+=families[_family].count;\r\n        }\r\n        else\r\n        {\r\n            flats[_flat].active-=families[_family].count;\r\n        }\r\n    }\r\n    function relocation(uint _pincode,string memory _newLocation,string memory _id) public\r\n    {\r\n         require(lAdmins[_pincode].ladminadd==msg.sender,\"Access Denied\");\r\n         families[_id].currentFlat=_newLocation;\r\n    }\r\n\r\n}\r\n",
  "sourcePath": "C:/Users/tamil/desktop/Decentralized_Covid_Tracker/src/contracts/Main.sol",
  "compiler": {
    "name": "solc",
    "version": "0.5.16+commit.9c3226ce.Emscripten.clang"
  },
  "schemaVersion": "3.2.3",
  "updatedAt": "2020-09-19T17:59:03.374Z",
  "networkType": "ethereum",
  "devdoc": {
    "methods": {}
  },
  "userdoc": {
    "methods": {}
  }
}