{
  "contractName": "Main",
  "abi": [
    {
      "inputs": [],
      "payable": false,
      "stateMutability": "nonpayable",
      "type": "constructor"
    },
    {
      "constant": true,
      "inputs": [
        {
          "internalType": "string",
          "name": "",
          "type": "string"
        },
        {
          "internalType": "uint256",
          "name": "",
          "type": "uint256"
        }
      ],
      "name": "HealthRecordsByFlat",
      "outputs": [
        {
          "internalType": "string",
          "name": "",
          "type": "string"
        }
      ],
      "payable": false,
      "stateMutability": "view",
      "type": "function"
    },
    {
      "constant": true,
      "inputs": [],
      "name": "admin",
      "outputs": [
        {
          "internalType": "address",
          "name": "",
          "type": "address"
        }
      ],
      "payable": false,
      "stateMutability": "view",
      "type": "function"
    },
    {
      "constant": true,
      "inputs": [
        {
          "internalType": "address",
          "name": "",
          "type": "address"
        }
      ],
      "name": "doctors",
      "outputs": [
        {
          "internalType": "address",
          "name": "docAdd",
          "type": "address"
        },
        {
          "internalType": "string",
          "name": "name",
          "type": "string"
        },
        {
          "internalType": "string",
          "name": "workPlace",
          "type": "string"
        },
        {
          "internalType": "string",
          "name": "family",
          "type": "string"
        }
      ],
      "payable": false,
      "stateMutability": "view",
      "type": "function"
    },
    {
      "constant": true,
      "inputs": [
        {
          "internalType": "string",
          "name": "",
          "type": "string"
        }
      ],
      "name": "families",
      "outputs": [
        {
          "internalType": "string",
          "name": "name",
          "type": "string"
        },
        {
          "internalType": "string",
          "name": "id",
          "type": "string"
        },
        {
          "internalType": "uint256",
          "name": "count",
          "type": "uint256"
        },
        {
          "internalType": "string",
          "name": "homeFlat",
          "type": "string"
        },
        {
          "internalType": "string",
          "name": "currentFlat",
          "type": "string"
        },
        {
          "internalType": "bool",
          "name": "infection",
          "type": "bool"
        }
      ],
      "payable": false,
      "stateMutability": "view",
      "type": "function"
    },
    {
      "constant": true,
      "inputs": [
        {
          "internalType": "string",
          "name": "",
          "type": "string"
        },
        {
          "internalType": "uint256",
          "name": "",
          "type": "uint256"
        }
      ],
      "name": "familyHealthRecords",
      "outputs": [
        {
          "internalType": "string",
          "name": "",
          "type": "string"
        }
      ],
      "payable": false,
      "stateMutability": "view",
      "type": "function"
    },
    {
      "constant": true,
      "inputs": [
        {
          "internalType": "string",
          "name": "",
          "type": "string"
        }
      ],
      "name": "flats",
      "outputs": [
        {
          "internalType": "string",
          "name": "id",
          "type": "string"
        },
        {
          "internalType": "uint256",
          "name": "total",
          "type": "uint256"
        },
        {
          "internalType": "uint256",
          "name": "active",
          "type": "uint256"
        },
        {
          "internalType": "string",
          "name": "coords",
          "type": "string"
        }
      ],
      "payable": false,
      "stateMutability": "view",
      "type": "function"
    },
    {
      "constant": true,
      "inputs": [
        {
          "internalType": "uint256",
          "name": "",
          "type": "uint256"
        },
        {
          "internalType": "uint256",
          "name": "",
          "type": "uint256"
        }
      ],
      "name": "flatsByPincode",
      "outputs": [
        {
          "internalType": "string",
          "name": "",
          "type": "string"
        }
      ],
      "payable": false,
      "stateMutability": "view",
      "type": "function"
    },
    {
      "constant": true,
      "inputs": [
        {
          "internalType": "string",
          "name": "",
          "type": "string"
        }
      ],
      "name": "healthRecords",
      "outputs": [
        {
          "internalType": "string",
          "name": "temperature",
          "type": "string"
        },
        {
          "internalType": "string",
          "name": "id",
          "type": "string"
        },
        {
          "internalType": "string",
          "name": "date",
          "type": "string"
        },
        {
          "internalType": "string",
          "name": "description",
          "type": "string"
        },
        {
          "internalType": "string",
          "name": "doc",
          "type": "string"
        }
      ],
      "payable": false,
      "stateMutability": "view",
      "type": "function"
    },
    {
      "constant": true,
      "inputs": [
        {
          "internalType": "address",
          "name": "",
          "type": "address"
        }
      ],
      "name": "lAdminPincodes",
      "outputs": [
        {
          "internalType": "uint256",
          "name": "",
          "type": "uint256"
        }
      ],
      "payable": false,
      "stateMutability": "view",
      "type": "function"
    },
    {
      "constant": true,
      "inputs": [
        {
          "internalType": "uint256",
          "name": "",
          "type": "uint256"
        }
      ],
      "name": "lAdmins",
      "outputs": [
        {
          "internalType": "address",
          "name": "ladminadd",
          "type": "address"
        },
        {
          "internalType": "uint256",
          "name": "aadhaar",
          "type": "uint256"
        },
        {
          "internalType": "uint256",
          "name": "pincode",
          "type": "uint256"
        }
      ],
      "payable": false,
      "stateMutability": "view",
      "type": "function"
    },
    {
      "constant": true,
      "inputs": [
        {
          "internalType": "string",
          "name": "",
          "type": "string"
        }
      ],
      "name": "reporters",
      "outputs": [
        {
          "internalType": "string",
          "name": "repId",
          "type": "string"
        },
        {
          "internalType": "string",
          "name": "Name",
          "type": "string"
        },
        {
          "internalType": "uint256",
          "name": "assigned_pincode",
          "type": "uint256"
        },
        {
          "internalType": "string",
          "name": "family",
          "type": "string"
        }
      ],
      "payable": false,
      "stateMutability": "view",
      "type": "function"
    },
    {
      "constant": true,
      "inputs": [
        {
          "internalType": "uint256",
          "name": "",
          "type": "uint256"
        },
        {
          "internalType": "uint256",
          "name": "",
          "type": "uint256"
        }
      ],
      "name": "reportersByPincode",
      "outputs": [
        {
          "internalType": "string",
          "name": "",
          "type": "string"
        }
      ],
      "payable": false,
      "stateMutability": "view",
      "type": "function"
    },
    {
      "constant": false,
      "inputs": [
        {
          "internalType": "address",
          "name": "_address",
          "type": "address"
        },
        {
          "internalType": "uint256",
          "name": "_aadhaar",
          "type": "uint256"
        },
        {
          "internalType": "uint256",
          "name": "_pincode",
          "type": "uint256"
        }
      ],
      "name": "createLocalAdmin",
      "outputs": [],
      "payable": false,
      "stateMutability": "nonpayable",
      "type": "function"
    },
    {
      "constant": false,
      "inputs": [
        {
          "internalType": "string",
          "name": "_id",
          "type": "string"
        },
        {
          "internalType": "string",
          "name": "_name",
          "type": "string"
        },
        {
          "internalType": "uint256",
          "name": "_pincode",
          "type": "uint256"
        },
        {
          "internalType": "string",
          "name": "_famid",
          "type": "string"
        }
      ],
      "name": "createReporter",
      "outputs": [],
      "payable": false,
      "stateMutability": "nonpayable",
      "type": "function"
    },
    {
      "constant": false,
      "inputs": [
        {
          "internalType": "uint256",
          "name": "_pincode",
          "type": "uint256"
        },
        {
          "internalType": "address",
          "name": "_address",
          "type": "address"
        },
        {
          "internalType": "string",
          "name": "_name",
          "type": "string"
        },
        {
          "internalType": "string",
          "name": "_workarea",
          "type": "string"
        },
        {
          "internalType": "string",
          "name": "_famid",
          "type": "string"
        }
      ],
      "name": "createDoctor",
      "outputs": [],
      "payable": false,
      "stateMutability": "nonpayable",
      "type": "function"
    },
    {
      "constant": false,
      "inputs": [
        {
          "internalType": "uint256",
          "name": "_pincode",
          "type": "uint256"
        },
        {
          "internalType": "string",
          "name": "_name",
          "type": "string"
        },
        {
          "internalType": "string",
          "name": "_id",
          "type": "string"
        },
        {
          "internalType": "uint256",
          "name": "_count",
          "type": "uint256"
        },
        {
          "internalType": "string",
          "name": "_home",
          "type": "string"
        },
        {
          "internalType": "string",
          "name": "_curr",
          "type": "string"
        }
      ],
      "name": "createFamily",
      "outputs": [],
      "payable": false,
      "stateMutability": "nonpayable",
      "type": "function"
    },
    {
      "constant": false,
      "inputs": [
        {
          "internalType": "uint256",
          "name": "_pincode",
          "type": "uint256"
        },
        {
          "internalType": "string",
          "name": "_id",
          "type": "string"
        },
        {
          "internalType": "uint256",
          "name": "_total",
          "type": "uint256"
        },
        {
          "internalType": "string",
          "name": "_coords",
          "type": "string"
        }
      ],
      "name": "createFlat",
      "outputs": [],
      "payable": false,
      "stateMutability": "nonpayable",
      "type": "function"
    },
    {
      "constant": true,
      "inputs": [
        {
          "internalType": "uint256",
          "name": "_pincode",
          "type": "uint256"
        }
      ],
      "name": "getFlatsByPin",
      "outputs": [
        {
          "internalType": "string[]",
          "name": "",
          "type": "string[]"
        }
      ],
      "payable": false,
      "stateMutability": "view",
      "type": "function"
    },
    {
      "constant": true,
      "inputs": [
        {
          "internalType": "string",
          "name": "_flat",
          "type": "string"
        }
      ],
      "name": "getHealthRecordsByFlat",
      "outputs": [
        {
          "internalType": "string[]",
          "name": "",
          "type": "string[]"
        }
      ],
      "payable": false,
      "stateMutability": "view",
      "type": "function"
    },
    {
      "constant": true,
      "inputs": [
        {
          "internalType": "string",
          "name": "_family",
          "type": "string"
        }
      ],
      "name": "getHealthRecordsByFamily",
      "outputs": [
        {
          "internalType": "string[]",
          "name": "",
          "type": "string[]"
        }
      ],
      "payable": false,
      "stateMutability": "view",
      "type": "function"
    },
    {
      "constant": true,
      "inputs": [
        {
          "internalType": "uint256",
          "name": "_pincode",
          "type": "uint256"
        }
      ],
      "name": "getReporterByPincode",
      "outputs": [
        {
          "internalType": "string[]",
          "name": "",
          "type": "string[]"
        }
      ],
      "payable": false,
      "stateMutability": "view",
      "type": "function"
    },
    {
      "constant": false,
      "inputs": [
        {
          "internalType": "uint256",
          "name": "_pincode",
          "type": "uint256"
        },
        {
          "internalType": "string",
          "name": "_flat",
          "type": "string"
        },
        {
          "internalType": "string",
          "name": "_family",
          "type": "string"
        },
        {
          "internalType": "string",
          "name": "_id",
          "type": "string"
        },
        {
          "internalType": "string",
          "name": "_temp",
          "type": "string"
        },
        {
          "internalType": "string",
          "name": "_date",
          "type": "string"
        },
        {
          "internalType": "string",
          "name": "_desc",
          "type": "string"
        }
      ],
      "name": "createHealthRecord",
      "outputs": [],
      "payable": false,
      "stateMutability": "nonpayable",
      "type": "function"
    },
    {
      "constant": false,
      "inputs": [
        {
          "internalType": "string",
          "name": "_hId",
          "type": "string"
        },
        {
          "internalType": "string",
          "name": "_flat",
          "type": "string"
        },
        {
          "internalType": "string",
          "name": "_family",
          "type": "string"
        },
        {
          "internalType": "bool",
          "name": "_stat",
          "type": "bool"
        }
      ],
      "name": "flagCovidStatus",
      "outputs": [],
      "payable": false,
      "stateMutability": "nonpayable",
      "type": "function"
    },
    {
      "constant": false,
      "inputs": [
        {
          "internalType": "uint256",
          "name": "_pincode",
          "type": "uint256"
        },
        {
          "internalType": "string",
          "name": "_newLocation",
          "type": "string"
        },
        {
          "internalType": "string",
          "name": "_id",
          "type": "string"
        }
      ],
      "name": "relocation",
      "outputs": [],
      "payable": false,
      "stateMutability": "nonpayable",
      "type": "function"
    }
  ],
  "bytecode": "0x608060405234801561001057600080fd5b50336000806101000a81548173ffffffffffffffffffffffffffffffffffffffff021916908373ffffffffffffffffffffffffffffffffffffffff160217905550613805806100606000396000f3fe608060405234801561001057600080fd5b50600436106101585760003560e01c80637ef958ad116100c3578063c28d11941161007c578063c28d119414610442578063dff89cdc14610472578063e2d8a80c1461048e578063e9561fd5146104c1578063f851a440146104f1578063fd61514a1461050f57610158565b80637ef958ad1461035857806391ad5260146103745780639c1e08aa146103a4578063a9583c22146103c0578063ae834de0146103f3578063b74b084d1461042657610158565b80633d605b49116101155780633d605b491461023257806340d3226f1461026257806347e889151461029657806358bbd7c4146102c657806372153884146102f65780637449c3ec1461032857610158565b80630e5fa1a91461015d57806311dc9eed1461017957806317acffb51461019557806327758dbc146101c55780632b41503b146101e157806337386169146101fd575b600080fd5b61017760048036036101729190810190612afa565b61053f565b005b610193600480360361018e9190810190612e8e565b6106dc565b005b6101af60048036036101aa9190810190612bf9565b610877565b6040516101bc9190613362565b60405180910390f35b6101df60048036036101da9190810190612ce1565b610973565b005b6101fb60048036036101f69190810190612a4f565b610a52565b005b610217600480360361021291908101906129cd565b610c97565b60405161022996959493929190613476565b60405180910390f35b61024c60048036036102479190810190612bf9565b610f56565b6040516102599190613362565b60405180910390f35b61027c600480360361027791908101906129cd565b611052565b60405161028d9594939291906133a6565b60405180910390f35b6102b060048036036102ab9190810190612a0e565b611396565b6040516102bd9190613362565b60405180910390f35b6102e060048036036102db9190810190612955565b61149d565b6040516102ed91906135c6565b60405180910390f35b610310600480360361030b9190810190612bf9565b6114b5565b60405161031f9392919061332b565b60405180910390f35b610342600480360361033d9190810190612ba5565b6114ff565b60405161034f9190613384565b60405180910390f35b610372600480360361036d9190810190612d60565b6115db565b005b61038e6004803603610389919081019061300a565b611826565b60405161039b9190613384565b60405180910390f35b6103be60048036036103b9919081019061297e565b6118ec565b005b6103da60048036036103d59190810190612955565b611b0b565b6040516103ea94939291906132d1565b60405180910390f35b61040d600480360361040891908101906129cd565b611d23565b60405161041d949392919061341c565b60405180910390f35b610440600480360361043b9190810190612f77565b611f31565b005b61045c60048036036104579190810190612a0e565b6120bc565b6040516104699190613362565b60405180910390f35b61048c60048036036104879190810190612c22565b6121c3565b005b6104a860048036036104a391908101906129cd565b612385565b6040516104b894939291906134f3565b60405180910390f35b6104db60048036036104d69190810190612ba5565b6124fb565b6040516104e89190613384565b60405180910390f35b6104f96125d7565b60405161050691906132b6565b60405180910390f35b6105296004803603610524919081019061300a565b6125fc565b6040516105369190613384565b60405180910390f35b3373ffffffffffffffffffffffffffffffffffffffff166009600084815260200190815260200160002060000160009054906101000a900473ffffffffffffffffffffffffffffffffffffffff1673ffffffffffffffffffffffffffffffffffffffff16146105e3576040517f08c379a00000000000000000000000000000000000000000000000000000000081526004016105da90613566565b60405180910390fd5b604051806080016040528085815260200184815260200183815260200182815250600785604051610614919061329f565b9081526020016040518091039020600082015181600001908051906020019061063e9291906126c2565b50602082015181600101908051906020019061065b9291906126c2565b506040820151816002015560608201518160030190805190602001906106829291906126c2565b50905050600860008381526020019081526020016000208490806001815401808255809150509060018203906000526020600020016000909192909190915090805190602001906106d4929190612742565b505050505050565b3373ffffffffffffffffffffffffffffffffffffffff166009600088815260200190815260200160002060000160009054906101000a900473ffffffffffffffffffffffffffffffffffffffff1673ffffffffffffffffffffffffffffffffffffffff1614610780576040517f08c379a000000000000000000000000000000000000000000000000000000000815260040161077790613566565b60405180910390fd5b6040518060c00160405280868152602001858152602001848152602001838152602001828152602001600015158152506004856040516107c0919061329f565b908152602001604051809103902060008201518160000190805190602001906107ea9291906126c2565b5060208201518160010190805190602001906108079291906126c2565b5060408201518160020155606082015181600301908051906020019061082e9291906126c2565b50608082015181600401908051906020019061084b9291906126c2565b5060a08201518160050160006101000a81548160ff021916908315150217905550905050505050505050565b606060016000838152602001908152602001600020805480602002602001604051908101604052809291908181526020016000905b82821015610968578382906000526020600020018054600181600116156101000203166002900480601f0160208091040260200160405190810160405280929190818152602001828054600181600116156101000203166002900480156109545780601f1061092957610100808354040283529160200191610954565b820191906000526020600020905b81548152906001019060200180831161093757829003601f168201915b5050505050815260200190600101906108ac565b505050509050919050565b3373ffffffffffffffffffffffffffffffffffffffff166009600085815260200190815260200160002060000160009054906101000a900473ffffffffffffffffffffffffffffffffffffffff1673ffffffffffffffffffffffffffffffffffffffff1614610a17576040517f08c379a0000000000000000000000000000000000000000000000000000000008152600401610a0e90613566565b60405180910390fd5b81600482604051610a28919061329f565b90815260200160405180910390206004019080519060200190610a4c929190612742565b50505050565b3373ffffffffffffffffffffffffffffffffffffffff16600660003373ffffffffffffffffffffffffffffffffffffffff1673ffffffffffffffffffffffffffffffffffffffff16815260200190815260200160002060000160009054906101000a900473ffffffffffffffffffffffffffffffffffffffff1673ffffffffffffffffffffffffffffffffffffffff1614610b22576040517f08c379a0000000000000000000000000000000000000000000000000000000008152600401610b19906135a6565b60405180910390fd5b600660003373ffffffffffffffffffffffffffffffffffffffff1673ffffffffffffffffffffffffffffffffffffffff168152602001908152602001600020600101600385604051610b74919061329f565b90815260200160405180910390206004019080546001816001161561010002031660029004610ba49291906127c2565b5080600483604051610bb6919061329f565b908152602001604051809103902060050160006101000a81548160ff021916908315150217905550600115158115151415610c4057600482604051610bfb919061329f565b908152602001604051809103902060020154600584604051610c1d919061329f565b908152602001604051809103902060020160008282540192505081905550610c91565b600482604051610c50919061329f565b908152602001604051809103902060020154600584604051610c72919061329f565b9081526020016040518091039020600201600082825403925050819055505b50505050565b600481805160208101820180518482526020830160208501208183528095505050505050600091509050806000018054600181600116156101000203166002900480601f016020809104026020016040519081016040528092919081815260200182805460018160011615610100020316600290048015610d595780601f10610d2e57610100808354040283529160200191610d59565b820191906000526020600020905b815481529060010190602001808311610d3c57829003601f168201915b505050505090806001018054600181600116156101000203166002900480601f016020809104026020016040519081016040528092919081815260200182805460018160011615610100020316600290048015610df75780601f10610dcc57610100808354040283529160200191610df7565b820191906000526020600020905b815481529060010190602001808311610dda57829003601f168201915b505050505090806002015490806003018054600181600116156101000203166002900480601f016020809104026020016040519081016040528092919081815260200182805460018160011615610100020316600290048015610e9b5780601f10610e7057610100808354040283529160200191610e9b565b820191906000526020600020905b815481529060010190602001808311610e7e57829003601f168201915b505050505090806004018054600181600116156101000203166002900480601f016020809104026020016040519081016040528092919081815260200182805460018160011615610100020316600290048015610f395780601f10610f0e57610100808354040283529160200191610f39565b820191906000526020600020905b815481529060010190602001808311610f1c57829003601f168201915b5050505050908060050160009054906101000a900460ff16905086565b606060086000838152602001908152602001600020805480602002602001604051908101604052809291908181526020016000905b82821015611047578382906000526020600020018054600181600116156101000203166002900480601f0160208091040260200160405190810160405280929190818152602001828054600181600116156101000203166002900480156110335780601f1061100857610100808354040283529160200191611033565b820191906000526020600020905b81548152906001019060200180831161101657829003601f168201915b505050505081526020019060010190610f8b565b505050509050919050565b600381805160208101820180518482526020830160208501208183528095505050505050600091509050806000018054600181600116156101000203166002900480601f0160208091040260200160405190810160405280929190818152602001828054600181600116156101000203166002900480156111145780601f106110e957610100808354040283529160200191611114565b820191906000526020600020905b8154815290600101906020018083116110f757829003601f168201915b505050505090806001018054600181600116156101000203166002900480601f0160208091040260200160405190810160405280929190818152602001828054600181600116156101000203166002900480156111b25780601f10611187576101008083540402835291602001916111b2565b820191906000526020600020905b81548152906001019060200180831161119557829003601f168201915b505050505090806002018054600181600116156101000203166002900480601f0160208091040260200160405190810160405280929190818152602001828054600181600116156101000203166002900480156112505780601f1061122557610100808354040283529160200191611250565b820191906000526020600020905b81548152906001019060200180831161123357829003601f168201915b505050505090806003018054600181600116156101000203166002900480601f0160208091040260200160405190810160405280929190818152602001828054600181600116156101000203166002900480156112ee5780601f106112c3576101008083540402835291602001916112ee565b820191906000526020600020905b8154815290600101906020018083116112d157829003601f168201915b505050505090806004018054600181600116156101000203166002900480601f01602080910402602001604051908101604052809291908181526020018280546001816001161561010002031660029004801561138c5780601f106113615761010080835404028352916020019161138c565b820191906000526020600020905b81548152906001019060200180831161136f57829003601f168201915b5050505050905085565b60606002826040516113a8919061329f565b9081526020016040518091039020805480602002602001604051908101604052809291908181526020016000905b82821015611492578382906000526020600020018054600181600116156101000203166002900480601f01602080910402602001604051908101604052809291908181526020018280546001816001161561010002031660029004801561147e5780601f106114535761010080835404028352916020019161147e565b820191906000526020600020905b81548152906001019060200180831161146157829003601f168201915b5050505050815260200190600101906113d6565b505050509050919050565b600a6020528060005260406000206000915090505481565b60096020528060005260406000206000915090508060000160009054906101000a900473ffffffffffffffffffffffffffffffffffffffff16908060010154908060020154905083565b600b82805160208101820180518482526020830160208501208183528095505050505050818154811061152e57fe5b90600052602060002001600091509150508054600181600116156101000203166002900480601f0160208091040260200160405190810160405280929190818152602001828054600181600116156101000203166002900480156115d35780601f106115a8576101008083540402835291602001916115d3565b820191906000526020600020905b8154815290600101906020018083116115b657829003601f168201915b505050505081565b3373ffffffffffffffffffffffffffffffffffffffff166009600089815260200190815260200160002060000160009054906101000a900473ffffffffffffffffffffffffffffffffffffffff1673ffffffffffffffffffffffffffffffffffffffff161461167f576040517f08c379a000000000000000000000000000000000000000000000000000000000815260040161167690613566565b60405180910390fd5b6040518060a00160405280848152602001858152602001838152602001828152602001604051806020016040528060008152508152506003856040516116c5919061329f565b908152602001604051809103902060008201518160000190805190602001906116ef9291906126c2565b50602082015181600101908051906020019061170c9291906126c2565b5060408201518160020190805190602001906117299291906126c2565b5060608201518160030190805190602001906117469291906126c2565b5060808201518160040190805190602001906117639291906126c2565b50905050600b85604051611777919061329f565b90815260200160405180910390208490806001815401808255809150509060018203906000526020600020016000909192909190915090805190602001906117c0929190612742565b50506002866040516117d2919061329f565b908152602001604051809103902084908060018154018082558091505090600182039060005260206000200160009091929091909150908051906020019061181b929190612742565b505050505050505050565b6008602052816000526040600020818154811061183f57fe5b90600052602060002001600091509150508054600181600116156101000203166002900480601f0160208091040260200160405190810160405280929190818152602001828054600181600116156101000203166002900480156118e45780601f106118b9576101008083540402835291602001916118e4565b820191906000526020600020905b8154815290600101906020018083116118c757829003601f168201915b505050505081565b3373ffffffffffffffffffffffffffffffffffffffff166000809054906101000a900473ffffffffffffffffffffffffffffffffffffffff1673ffffffffffffffffffffffffffffffffffffffff161461197b576040517f08c379a000000000000000000000000000000000000000000000000000000000815260040161197290613546565b60405180910390fd5b600073ffffffffffffffffffffffffffffffffffffffff166009600083815260200190815260200160002060000160009054906101000a900473ffffffffffffffffffffffffffffffffffffffff1673ffffffffffffffffffffffffffffffffffffffff1614611a20576040517f08c379a0000000000000000000000000000000000000000000000000000000008152600401611a1790613586565b60405180910390fd5b60405180606001604052808473ffffffffffffffffffffffffffffffffffffffff168152602001838152602001828152506009600083815260200190815260200160002060008201518160000160006101000a81548173ffffffffffffffffffffffffffffffffffffffff021916908373ffffffffffffffffffffffffffffffffffffffff160217905550602082015181600101556040820151816002015590505080600a60008573ffffffffffffffffffffffffffffffffffffffff1673ffffffffffffffffffffffffffffffffffffffff16815260200190815260200160002081905550505050565b60066020528060005260406000206000915090508060000160009054906101000a900473ffffffffffffffffffffffffffffffffffffffff1690806001018054600181600116156101000203166002900480601f016020809104026020016040519081016040528092919081815260200182805460018160011615610100020316600290048015611bdd5780601f10611bb257610100808354040283529160200191611bdd565b820191906000526020600020905b815481529060010190602001808311611bc057829003601f168201915b505050505090806002018054600181600116156101000203166002900480601f016020809104026020016040519081016040528092919081815260200182805460018160011615610100020316600290048015611c7b5780601f10611c5057610100808354040283529160200191611c7b565b820191906000526020600020905b815481529060010190602001808311611c5e57829003601f168201915b505050505090806003018054600181600116156101000203166002900480601f016020809104026020016040519081016040528092919081815260200182805460018160011615610100020316600290048015611d195780601f10611cee57610100808354040283529160200191611d19565b820191906000526020600020905b815481529060010190602001808311611cfc57829003601f168201915b5050505050905084565b600781805160208101820180518482526020830160208501208183528095505050505050600091509050806000018054600181600116156101000203166002900480601f016020809104026020016040519081016040528092919081815260200182805460018160011615610100020316600290048015611de55780601f10611dba57610100808354040283529160200191611de5565b820191906000526020600020905b815481529060010190602001808311611dc857829003601f168201915b505050505090806001018054600181600116156101000203166002900480601f016020809104026020016040519081016040528092919081815260200182805460018160011615610100020316600290048015611e835780601f10611e5857610100808354040283529160200191611e83565b820191906000526020600020905b815481529060010190602001808311611e6657829003601f168201915b505050505090806002015490806003018054600181600116156101000203166002900480601f016020809104026020016040519081016040528092919081815260200182805460018160011615610100020316600290048015611f275780601f10611efc57610100808354040283529160200191611f27565b820191906000526020600020905b815481529060010190602001808311611f0a57829003601f168201915b5050505050905084565b3373ffffffffffffffffffffffffffffffffffffffff166009600086815260200190815260200160002060000160009054906101000a900473ffffffffffffffffffffffffffffffffffffffff1673ffffffffffffffffffffffffffffffffffffffff1614611fd5576040517f08c379a0000000000000000000000000000000000000000000000000000000008152600401611fcc90613566565b60405180910390fd5b60405180608001604052808481526020018381526020016000815260200182815250600584604051612007919061329f565b908152602001604051809103902060008201518160000190805190602001906120319291906126c2565b50602082015181600101556040820151816002015560608201518160030190805190602001906120629291906126c2565b50905050600160008581526020019081526020016000208390806001815401808255809150509060018203906000526020600020016000909192909190915090805190602001906120b4929190612742565b505050505050565b6060600b826040516120ce919061329f565b9081526020016040518091039020805480602002602001604051908101604052809291908181526020016000905b828210156121b8578382906000526020600020018054600181600116156101000203166002900480601f0160208091040260200160405190810160405280929190818152602001828054600181600116156101000203166002900480156121a45780601f10612179576101008083540402835291602001916121a4565b820191906000526020600020905b81548152906001019060200180831161218757829003601f168201915b5050505050815260200190600101906120fc565b505050509050919050565b3373ffffffffffffffffffffffffffffffffffffffff166009600087815260200190815260200160002060000160009054906101000a900473ffffffffffffffffffffffffffffffffffffffff1673ffffffffffffffffffffffffffffffffffffffff1614612267576040517f08c379a000000000000000000000000000000000000000000000000000000000815260040161225e90613566565b60405180910390fd5b60405180608001604052808573ffffffffffffffffffffffffffffffffffffffff16815260200184815260200183815260200182815250600660008673ffffffffffffffffffffffffffffffffffffffff1673ffffffffffffffffffffffffffffffffffffffff16815260200190815260200160002060008201518160000160006101000a81548173ffffffffffffffffffffffffffffffffffffffff021916908373ffffffffffffffffffffffffffffffffffffffff16021790555060208201518160010190805190602001906123409291906126c2565b50604082015181600201908051906020019061235d9291906126c2565b50606082015181600301908051906020019061237a9291906126c2565b509050505050505050565b600581805160208101820180518482526020830160208501208183528095505050505050600091509050806000018054600181600116156101000203166002900480601f0160208091040260200160405190810160405280929190818152602001828054600181600116156101000203166002900480156124475780601f1061241c57610100808354040283529160200191612447565b820191906000526020600020905b81548152906001019060200180831161242a57829003601f168201915b505050505090806001015490806002015490806003018054600181600116156101000203166002900480601f0160208091040260200160405190810160405280929190818152602001828054600181600116156101000203166002900480156124f15780601f106124c6576101008083540402835291602001916124f1565b820191906000526020600020905b8154815290600101906020018083116124d457829003601f168201915b5050505050905084565b600282805160208101820180518482526020830160208501208183528095505050505050818154811061252a57fe5b90600052602060002001600091509150508054600181600116156101000203166002900480601f0160208091040260200160405190810160405280929190818152602001828054600181600116156101000203166002900480156125cf5780601f106125a4576101008083540402835291602001916125cf565b820191906000526020600020905b8154815290600101906020018083116125b257829003601f168201915b505050505081565b6000809054906101000a900473ffffffffffffffffffffffffffffffffffffffff1681565b6001602052816000526040600020818154811061261557fe5b90600052602060002001600091509150508054600181600116156101000203166002900480601f0160208091040260200160405190810160405280929190818152602001828054600181600116156101000203166002900480156126ba5780601f1061268f576101008083540402835291602001916126ba565b820191906000526020600020905b81548152906001019060200180831161269d57829003601f168201915b505050505081565b828054600181600116156101000203166002900490600052602060002090601f016020900481019282601f1061270357805160ff1916838001178555612731565b82800160010185558215612731579182015b82811115612730578251825591602001919060010190612715565b5b50905061273e9190612849565b5090565b828054600181600116156101000203166002900490600052602060002090601f016020900481019282601f1061278357805160ff19168380011785556127b1565b828001600101855582156127b1579182015b828111156127b0578251825591602001919060010190612795565b5b5090506127be9190612849565b5090565b828054600181600116156101000203166002900490600052602060002090601f016020900481019282601f106127fb5780548555612838565b8280016001018555821561283857600052602060002091601f016020900482015b8281111561283757825482559160010191906001019061281c565b5b5090506128459190612849565b5090565b61286b91905b8082111561286757600081600090555060010161284f565b5090565b90565b60008135905061287d8161377d565b92915050565b60008135905061289281613794565b92915050565b600082601f8301126128a957600080fd5b81356128bc6128b78261360e565b6135e1565b915080825260208301602083018583830111156128d857600080fd5b6128e383828461372a565b50505092915050565b600082601f8301126128fd57600080fd5b813561291061290b8261363a565b6135e1565b9150808252602083016020830185838301111561292c57600080fd5b61293783828461372a565b50505092915050565b60008135905061294f816137ab565b92915050565b60006020828403121561296757600080fd5b60006129758482850161286e565b91505092915050565b60008060006060848603121561299357600080fd5b60006129a18682870161286e565b93505060206129b286828701612940565b92505060406129c386828701612940565b9150509250925092565b6000602082840312156129df57600080fd5b600082013567ffffffffffffffff8111156129f957600080fd5b612a0584828501612898565b91505092915050565b600060208284031215612a2057600080fd5b600082013567ffffffffffffffff811115612a3a57600080fd5b612a46848285016128ec565b91505092915050565b60008060008060808587031215612a6557600080fd5b600085013567ffffffffffffffff811115612a7f57600080fd5b612a8b878288016128ec565b945050602085013567ffffffffffffffff811115612aa857600080fd5b612ab4878288016128ec565b935050604085013567ffffffffffffffff811115612ad157600080fd5b612add878288016128ec565b9250506060612aee87828801612883565b91505092959194509250565b60008060008060808587031215612b1057600080fd5b600085013567ffffffffffffffff811115612b2a57600080fd5b612b36878288016128ec565b945050602085013567ffffffffffffffff811115612b5357600080fd5b612b5f878288016128ec565b9350506040612b7087828801612940565b925050606085013567ffffffffffffffff811115612b8d57600080fd5b612b99878288016128ec565b91505092959194509250565b60008060408385031215612bb857600080fd5b600083013567ffffffffffffffff811115612bd257600080fd5b612bde85828601612898565b9250506020612bef85828601612940565b9150509250929050565b600060208284031215612c0b57600080fd5b6000612c1984828501612940565b91505092915050565b600080600080600060a08688031215612c3a57600080fd5b6000612c4888828901612940565b9550506020612c598882890161286e565b945050604086013567ffffffffffffffff811115612c7657600080fd5b612c82888289016128ec565b935050606086013567ffffffffffffffff811115612c9f57600080fd5b612cab888289016128ec565b925050608086013567ffffffffffffffff811115612cc857600080fd5b612cd4888289016128ec565b9150509295509295909350565b600080600060608486031215612cf657600080fd5b6000612d0486828701612940565b935050602084013567ffffffffffffffff811115612d2157600080fd5b612d2d868287016128ec565b925050604084013567ffffffffffffffff811115612d4a57600080fd5b612d56868287016128ec565b9150509250925092565b600080600080600080600060e0888a031215612d7b57600080fd5b6000612d898a828b01612940565b975050602088013567ffffffffffffffff811115612da657600080fd5b612db28a828b016128ec565b965050604088013567ffffffffffffffff811115612dcf57600080fd5b612ddb8a828b016128ec565b955050606088013567ffffffffffffffff811115612df857600080fd5b612e048a828b016128ec565b945050608088013567ffffffffffffffff811115612e2157600080fd5b612e2d8a828b016128ec565b93505060a088013567ffffffffffffffff811115612e4a57600080fd5b612e568a828b016128ec565b92505060c088013567ffffffffffffffff811115612e7357600080fd5b612e7f8a828b016128ec565b91505092959891949750929550565b60008060008060008060c08789031215612ea757600080fd5b6000612eb589828a01612940565b965050602087013567ffffffffffffffff811115612ed257600080fd5b612ede89828a016128ec565b955050604087013567ffffffffffffffff811115612efb57600080fd5b612f0789828a016128ec565b9450506060612f1889828a01612940565b935050608087013567ffffffffffffffff811115612f3557600080fd5b612f4189828a016128ec565b92505060a087013567ffffffffffffffff811115612f5e57600080fd5b612f6a89828a016128ec565b9150509295509295509295565b60008060008060808587031215612f8d57600080fd5b6000612f9b87828801612940565b945050602085013567ffffffffffffffff811115612fb857600080fd5b612fc4878288016128ec565b9350506040612fd587828801612940565b925050606085013567ffffffffffffffff811115612ff257600080fd5b612ffe878288016128ec565b91505092959194509250565b6000806040838503121561301d57600080fd5b600061302b85828601612940565b925050602061303c85828601612940565b9150509250929050565b6000613052838361311e565b905092915050565b613063816136e2565b82525050565b600061307482613676565b61307e81856136a4565b93508360208202850161309085613666565b8060005b858110156130cc57848403895281516130ad8582613046565b94506130b883613697565b925060208a01995050600181019050613094565b50829750879550505050505092915050565b6130e7816136f4565b82525050565b60006130f88261368c565b61310281856136d7565b9350613112818560208601613739565b80840191505092915050565b600061312982613681565b61313381856136b5565b9350613143818560208601613739565b61314c8161376c565b840191505092915050565b600061316282613681565b61316c81856136c6565b935061317c818560208601613739565b6131858161376c565b840191505092915050565b600061319d600e836136c6565b91507f4163636573732044656e696564210000000000000000000000000000000000006000830152602082019050919050565b60006131dd600d836136c6565b91507f4163636573732044656e696564000000000000000000000000000000000000006000830152602082019050919050565b600061321d601d836136c6565b91507f4c6f63616c2041646d696e20494420616c7265616479206578697374210000006000830152602082019050919050565b600061325d600d836136c6565b91507f4163636573732064656e696564000000000000000000000000000000000000006000830152602082019050919050565b61329981613720565b82525050565b60006132ab82846130ed565b915081905092915050565b60006020820190506132cb600083018461305a565b92915050565b60006080820190506132e6600083018761305a565b81810360208301526132f88186613157565b9050818103604083015261330c8185613157565b905081810360608301526133208184613157565b905095945050505050565b6000606082019050613340600083018661305a565b61334d6020830185613290565b61335a6040830184613290565b949350505050565b6000602082019050818103600083015261337c8184613069565b905092915050565b6000602082019050818103600083015261339e8184613157565b905092915050565b600060a08201905081810360008301526133c08188613157565b905081810360208301526133d48187613157565b905081810360408301526133e88186613157565b905081810360608301526133fc8185613157565b905081810360808301526134108184613157565b90509695505050505050565b600060808201905081810360008301526134368187613157565b9050818103602083015261344a8186613157565b90506134596040830185613290565b818103606083015261346b8184613157565b905095945050505050565b600060c08201905081810360008301526134908189613157565b905081810360208301526134a48188613157565b90506134b36040830187613290565b81810360608301526134c58186613157565b905081810360808301526134d98185613157565b90506134e860a08301846130de565b979650505050505050565b6000608082019050818103600083015261350d8187613157565b905061351c6020830186613290565b6135296040830185613290565b818103606083015261353b8184613157565b905095945050505050565b6000602082019050818103600083015261355f81613190565b9050919050565b6000602082019050818103600083015261357f816131d0565b9050919050565b6000602082019050818103600083015261359f81613210565b9050919050565b600060208201905081810360008301526135bf81613250565b9050919050565b60006020820190506135db6000830184613290565b92915050565b6000604051905081810181811067ffffffffffffffff8211171561360457600080fd5b8060405250919050565b600067ffffffffffffffff82111561362557600080fd5b601f19601f8301169050602081019050919050565b600067ffffffffffffffff82111561365157600080fd5b601f19601f8301169050602081019050919050565b6000819050602082019050919050565b600081519050919050565b600081519050919050565b600081519050919050565b6000602082019050919050565b600082825260208201905092915050565b600082825260208201905092915050565b600082825260208201905092915050565b600081905092915050565b60006136ed82613700565b9050919050565b60008115159050919050565b600073ffffffffffffffffffffffffffffffffffffffff82169050919050565b6000819050919050565b82818337600083830152505050565b60005b8381101561375757808201518184015260208101905061373c565b83811115613766576000848401525b50505050565b6000601f19601f8301169050919050565b613786816136e2565b811461379157600080fd5b50565b61379d816136f4565b81146137a857600080fd5b50565b6137b481613720565b81146137bf57600080fd5b5056fea365627a7a7231582070c533571d633c65ab4c638eb146ef7f6847bc78e8732561246dfeb05c3be6016c6578706572696d656e74616cf564736f6c63430005100040",
  "source": "pragma solidity ^0.5.0;\r\npragma experimental ABIEncoderV2;\r\n\r\ncontract Main\r\n{\r\n    address public admin;\r\n    struct localAdmin\r\n    {\r\n        address ladminadd;\r\n        uint aadhaar;\r\n        uint pincode;\r\n    }\r\n    struct Reporter\r\n    {\r\n        string repId;\r\n        string Name;\r\n        uint assigned_pincode;\r\n        string family;\r\n    }\r\n    struct Doctor\r\n    {\r\n        address docAdd;\r\n        string name;\r\n        string workPlace;\r\n        string family;\r\n    }\r\n    struct HealthRecord\r\n    {\r\n        string temperature;\r\n        string id;\r\n        string date;\r\n        string description;\r\n        string doc;\r\n    }\r\n    struct Family\r\n    {\r\n        string name;\r\n        string id;\r\n        uint count;\r\n        string homeFlat;\r\n        string currentFlat;\r\n        bool infection;\r\n    }\r\n    struct Flat\r\n    {\r\n        string id;\r\n        uint total;\r\n        uint active;\r\n        string coords;\r\n    }\r\n    mapping(uint=>string[]) public flatsByPincode;\r\n    mapping(string=>string[]) public HealthRecordsByFlat;\r\n    mapping(string=>HealthRecord) public healthRecords;\r\n    mapping(string=>Family) public families;\r\n    mapping(string=>Flat) public flats;\r\n    mapping(address=>Doctor) public doctors;\r\n    mapping(string=>Reporter) public reporters;\r\n    mapping(uint=>string[]) public reportersByPincode;\r\n    mapping(uint=>localAdmin) public lAdmins;\r\n    mapping(address=>uint) public lAdminPincodes;\r\n    mapping(string=>string[]) public familyHealthRecords;\r\n    constructor() public\r\n    {\r\n        admin=msg.sender;\r\n    }\r\n\r\n    function createLocalAdmin(address _address,uint _aadhaar,uint _pincode) public\r\n    {\r\n        require(admin==msg.sender,\"Access Denied!\");\r\n        require(lAdmins[_pincode].ladminadd==address(0),\"Local Admin ID already exist!\");\r\n        lAdmins[_pincode]=localAdmin(_address,_aadhaar,_pincode);\r\n        lAdminPincodes[_address]=_pincode;\r\n    }\r\n    function createReporter(string memory _id,string memory _name,uint _pincode,string memory _famid) public\r\n    {\r\n        require(lAdmins[_pincode].ladminadd==msg.sender,\"Access Denied\");\r\n        reporters[_id]=Reporter(_id,_name,_pincode,_famid);\r\n        reportersByPincode[_pincode].push(_id);\r\n    }\r\n    function createDoctor(uint _pincode,address _address,string memory _name,string memory _workarea,string memory _famid) public\r\n    {\r\n        require(lAdmins[_pincode].ladminadd==msg.sender,\"Access Denied\");\r\n        doctors[_address]=Doctor(_address,_name,_workarea,_famid);\r\n    }\r\n    function createFamily(uint _pincode,string memory _name,string memory _id,uint _count,string memory _home,string memory _curr) public\r\n    {\r\n        require(lAdmins[_pincode].ladminadd==msg.sender,\"Access Denied\");\r\n        families[_id]=Family(_name,_id,_count,_home,_curr,false);\r\n    }\r\n    function createFlat(uint _pincode,string memory _id,uint _total,string memory _coords) public\r\n    {\r\n        require(lAdmins[_pincode].ladminadd==msg.sender,\"Access Denied\");\r\n        flats[_id]=Flat(_id,_total,0,_coords);\r\n        flatsByPincode[_pincode].push(_id);\r\n    }\r\n    function getFlatsByPin(uint _pincode) public view returns(string [] memory)\r\n    {\r\n        return(flatsByPincode[_pincode]);\r\n    }\r\n    function getHealthRecordsByFlat(string memory _flat) public view returns(string [] memory)\r\n    {\r\n        return(HealthRecordsByFlat[_flat]);\r\n    }\r\n    function getHealthRecordsByFamily(string memory _family) public view returns(string [] memory)\r\n    {\r\n        return(familyHealthRecords[_family]);\r\n    }\r\n    function getReporterByPincode(uint _pincode) public view returns(string [] memory)\r\n    {\r\n        return (reportersByPincode[_pincode]);\r\n    }\r\n    function createHealthRecord(uint _pincode,string memory _flat,string memory _family,string memory _id,string memory _temp,string memory _date,string memory _desc) public\r\n    {\r\n        require(lAdmins[_pincode].ladminadd==msg.sender,\"Access Denied\");\r\n        healthRecords[_id]=HealthRecord(_temp,_id,_date,_desc,'');\r\n        familyHealthRecords[_family].push(_id);\r\n        HealthRecordsByFlat[_flat].push(_id);\r\n    }\r\n    function flagCovidStatus(string memory _hId,string memory _flat,string memory _family,bool _stat) public\r\n    {\r\n        require(doctors[msg.sender].docAdd==msg.sender,\"Access denied\");\r\n        healthRecords[_hId].doc=doctors[msg.sender].name;\r\n        families[_family].infection=_stat;\r\n        if(_stat==true){\r\n            flats[_flat].active+=families[_family].count;\r\n        }\r\n        else\r\n        {\r\n            flats[_flat].active-=families[_family].count;\r\n        }\r\n    }\r\n    function relocation(uint _pincode,string memory _newLocation,string memory _id) public\r\n    {\r\n         require(lAdmins[_pincode].ladminadd==msg.sender,\"Access Denied\");\r\n         families[_id].currentFlat=_newLocation;\r\n    }\r\n\r\n}\r\n",
  "sourcePath": "C:/Users/tamil/desktop/Decentralized_Covid_Tracker/src/contracts/Main.sol",
  "compiler": {
    "name": "solc",
    "version": "0.5.16+commit.9c3226ce.Emscripten.clang"
  },
  "schemaVersion": "3.2.3",
  "updatedAt": "2020-09-23T16:19:13.777Z",
  "networkType": "ethereum",
  "devdoc": {
    "methods": {}
  },
  "userdoc": {
    "methods": {}
  }
}