{
  "contractName": "Main",
  "abi": [
    {
      "inputs": [],
      "payable": false,
      "stateMutability": "nonpayable",
      "type": "constructor"
    },
    {
      "constant": true,
      "inputs": [
        {
          "internalType": "string",
          "name": "",
          "type": "string"
        },
        {
          "internalType": "uint256",
          "name": "",
          "type": "uint256"
        }
      ],
      "name": "HealthRecordsByFlat",
      "outputs": [
        {
          "internalType": "string",
          "name": "",
          "type": "string"
        }
      ],
      "payable": false,
      "stateMutability": "view",
      "type": "function"
    },
    {
      "constant": true,
      "inputs": [],
      "name": "admin",
      "outputs": [
        {
          "internalType": "address",
          "name": "",
          "type": "address"
        }
      ],
      "payable": false,
      "stateMutability": "view",
      "type": "function"
    },
    {
      "constant": true,
      "inputs": [
        {
          "internalType": "address",
          "name": "",
          "type": "address"
        }
      ],
      "name": "doctors",
      "outputs": [
        {
          "internalType": "address",
          "name": "docAdd",
          "type": "address"
        },
        {
          "internalType": "string",
          "name": "name",
          "type": "string"
        },
        {
          "internalType": "string",
          "name": "workPlace",
          "type": "string"
        },
        {
          "internalType": "string",
          "name": "family",
          "type": "string"
        }
      ],
      "payable": false,
      "stateMutability": "view",
      "type": "function"
    },
    {
      "constant": true,
      "inputs": [
        {
          "internalType": "string",
          "name": "",
          "type": "string"
        }
      ],
      "name": "families",
      "outputs": [
        {
          "internalType": "string",
          "name": "name",
          "type": "string"
        },
        {
          "internalType": "string",
          "name": "id",
          "type": "string"
        },
        {
          "internalType": "uint256",
          "name": "count",
          "type": "uint256"
        },
        {
          "internalType": "string",
          "name": "homeFlat",
          "type": "string"
        },
        {
          "internalType": "string",
          "name": "currentFlat",
          "type": "string"
        },
        {
          "internalType": "bool",
          "name": "infection",
          "type": "bool"
        }
      ],
      "payable": false,
      "stateMutability": "view",
      "type": "function"
    },
    {
      "constant": true,
      "inputs": [
        {
          "internalType": "string",
          "name": "",
          "type": "string"
        },
        {
          "internalType": "uint256",
          "name": "",
          "type": "uint256"
        }
      ],
      "name": "familyHealthRecords",
      "outputs": [
        {
          "internalType": "string",
          "name": "",
          "type": "string"
        }
      ],
      "payable": false,
      "stateMutability": "view",
      "type": "function"
    },
    {
      "constant": true,
      "inputs": [
        {
          "internalType": "string",
          "name": "",
          "type": "string"
        }
      ],
      "name": "flats",
      "outputs": [
        {
          "internalType": "string",
          "name": "id",
          "type": "string"
        },
        {
          "internalType": "uint256",
          "name": "total",
          "type": "uint256"
        },
        {
          "internalType": "uint256",
          "name": "active",
          "type": "uint256"
        },
        {
          "internalType": "string",
          "name": "coords",
          "type": "string"
        }
      ],
      "payable": false,
      "stateMutability": "view",
      "type": "function"
    },
    {
      "constant": true,
      "inputs": [
        {
          "internalType": "uint256",
          "name": "",
          "type": "uint256"
        },
        {
          "internalType": "uint256",
          "name": "",
          "type": "uint256"
        }
      ],
      "name": "flatsByPincode",
      "outputs": [
        {
          "internalType": "string",
          "name": "",
          "type": "string"
        }
      ],
      "payable": false,
      "stateMutability": "view",
      "type": "function"
    },
    {
      "constant": true,
      "inputs": [
        {
          "internalType": "string",
          "name": "",
          "type": "string"
        }
      ],
      "name": "healthRecords",
      "outputs": [
        {
          "internalType": "string",
          "name": "temperature",
          "type": "string"
        },
        {
          "internalType": "string",
          "name": "id",
          "type": "string"
        },
        {
          "internalType": "string",
          "name": "date",
          "type": "string"
        },
        {
          "internalType": "string",
          "name": "description",
          "type": "string"
        },
        {
          "internalType": "string",
          "name": "doc",
          "type": "string"
        }
      ],
      "payable": false,
      "stateMutability": "view",
      "type": "function"
    },
    {
      "constant": true,
      "inputs": [
        {
          "internalType": "address",
          "name": "",
          "type": "address"
        }
      ],
      "name": "lAdminPincodes",
      "outputs": [
        {
          "internalType": "uint256",
          "name": "",
          "type": "uint256"
        }
      ],
      "payable": false,
      "stateMutability": "view",
      "type": "function"
    },
    {
      "constant": true,
      "inputs": [
        {
          "internalType": "uint256",
          "name": "",
          "type": "uint256"
        }
      ],
      "name": "lAdmins",
      "outputs": [
        {
          "internalType": "address",
          "name": "ladminadd",
          "type": "address"
        },
        {
          "internalType": "uint256",
          "name": "aadhaar",
          "type": "uint256"
        },
        {
          "internalType": "uint256",
          "name": "pincode",
          "type": "uint256"
        }
      ],
      "payable": false,
      "stateMutability": "view",
      "type": "function"
    },
    {
      "constant": true,
      "inputs": [
        {
          "internalType": "string",
          "name": "",
          "type": "string"
        }
      ],
      "name": "reporters",
      "outputs": [
        {
          "internalType": "string",
          "name": "repId",
          "type": "string"
        },
        {
          "internalType": "string",
          "name": "Name",
          "type": "string"
        },
        {
          "internalType": "uint256",
          "name": "assigned_pincode",
          "type": "uint256"
        },
        {
          "internalType": "string",
          "name": "family",
          "type": "string"
        }
      ],
      "payable": false,
      "stateMutability": "view",
      "type": "function"
    },
    {
      "constant": false,
      "inputs": [
        {
          "internalType": "address",
          "name": "_address",
          "type": "address"
        },
        {
          "internalType": "uint256",
          "name": "_aadhaar",
          "type": "uint256"
        },
        {
          "internalType": "uint256",
          "name": "_pincode",
          "type": "uint256"
        }
      ],
      "name": "createLocalAdmin",
      "outputs": [],
      "payable": false,
      "stateMutability": "nonpayable",
      "type": "function"
    },
    {
      "constant": false,
      "inputs": [
        {
          "internalType": "string",
          "name": "_id",
          "type": "string"
        },
        {
          "internalType": "string",
          "name": "_name",
          "type": "string"
        },
        {
          "internalType": "uint256",
          "name": "_pincode",
          "type": "uint256"
        },
        {
          "internalType": "string",
          "name": "_famid",
          "type": "string"
        }
      ],
      "name": "createReporter",
      "outputs": [],
      "payable": false,
      "stateMutability": "nonpayable",
      "type": "function"
    },
    {
      "constant": false,
      "inputs": [
        {
          "internalType": "uint256",
          "name": "_pincode",
          "type": "uint256"
        },
        {
          "internalType": "address",
          "name": "_address",
          "type": "address"
        },
        {
          "internalType": "string",
          "name": "_name",
          "type": "string"
        },
        {
          "internalType": "string",
          "name": "_workarea",
          "type": "string"
        },
        {
          "internalType": "string",
          "name": "_famid",
          "type": "string"
        }
      ],
      "name": "createDoctor",
      "outputs": [],
      "payable": false,
      "stateMutability": "nonpayable",
      "type": "function"
    },
    {
      "constant": false,
      "inputs": [
        {
          "internalType": "uint256",
          "name": "_pincode",
          "type": "uint256"
        },
        {
          "internalType": "string",
          "name": "_name",
          "type": "string"
        },
        {
          "internalType": "string",
          "name": "_id",
          "type": "string"
        },
        {
          "internalType": "uint256",
          "name": "_count",
          "type": "uint256"
        },
        {
          "internalType": "string",
          "name": "_home",
          "type": "string"
        },
        {
          "internalType": "string",
          "name": "_curr",
          "type": "string"
        }
      ],
      "name": "createFamily",
      "outputs": [],
      "payable": false,
      "stateMutability": "nonpayable",
      "type": "function"
    },
    {
      "constant": false,
      "inputs": [
        {
          "internalType": "uint256",
          "name": "_pincode",
          "type": "uint256"
        },
        {
          "internalType": "string",
          "name": "_id",
          "type": "string"
        },
        {
          "internalType": "uint256",
          "name": "_total",
          "type": "uint256"
        },
        {
          "internalType": "string",
          "name": "_coords",
          "type": "string"
        }
      ],
      "name": "createFlat",
      "outputs": [],
      "payable": false,
      "stateMutability": "nonpayable",
      "type": "function"
    },
    {
      "constant": true,
      "inputs": [
        {
          "internalType": "uint256",
          "name": "_pincode",
          "type": "uint256"
        }
      ],
      "name": "getFlatsByPin",
      "outputs": [
        {
          "internalType": "string[]",
          "name": "",
          "type": "string[]"
        }
      ],
      "payable": false,
      "stateMutability": "view",
      "type": "function"
    },
    {
      "constant": true,
      "inputs": [
        {
          "internalType": "string",
          "name": "_flat",
          "type": "string"
        }
      ],
      "name": "getHealthRecordsByFlat",
      "outputs": [
        {
          "internalType": "string[]",
          "name": "",
          "type": "string[]"
        }
      ],
      "payable": false,
      "stateMutability": "view",
      "type": "function"
    },
    {
      "constant": false,
      "inputs": [
        {
          "internalType": "uint256",
          "name": "_pincode",
          "type": "uint256"
        },
        {
          "internalType": "string",
          "name": "_flat",
          "type": "string"
        },
        {
          "internalType": "string",
          "name": "_family",
          "type": "string"
        },
        {
          "internalType": "string",
          "name": "_id",
          "type": "string"
        },
        {
          "internalType": "string",
          "name": "_temp",
          "type": "string"
        },
        {
          "internalType": "string",
          "name": "_date",
          "type": "string"
        },
        {
          "internalType": "string",
          "name": "_desc",
          "type": "string"
        }
      ],
      "name": "createHealthRecord",
      "outputs": [],
      "payable": false,
      "stateMutability": "nonpayable",
      "type": "function"
    },
    {
      "constant": false,
      "inputs": [
        {
          "internalType": "string",
          "name": "_hId",
          "type": "string"
        },
        {
          "internalType": "string",
          "name": "_flat",
          "type": "string"
        },
        {
          "internalType": "string",
          "name": "_family",
          "type": "string"
        },
        {
          "internalType": "bool",
          "name": "_stat",
          "type": "bool"
        }
      ],
      "name": "flagCovidStatus",
      "outputs": [],
      "payable": false,
      "stateMutability": "nonpayable",
      "type": "function"
    },
    {
      "constant": false,
      "inputs": [
        {
          "internalType": "uint256",
          "name": "_pincode",
          "type": "uint256"
        },
        {
          "internalType": "string",
          "name": "_newLocation",
          "type": "string"
        },
        {
          "internalType": "string",
          "name": "_id",
          "type": "string"
        }
      ],
      "name": "relocation",
      "outputs": [],
      "payable": false,
      "stateMutability": "nonpayable",
      "type": "function"
    }
  ],
  "bytecode": "0x608060405234801561001057600080fd5b50336000806101000a81548173ffffffffffffffffffffffffffffffffffffffff021916908373ffffffffffffffffffffffffffffffffffffffff16021790555061343b806100606000396000f3fe608060405234801561001057600080fd5b50600436106101375760003560e01c80637449c3ec116100b8578063b74b084d1161007c578063b74b084d146103a5578063dff89cdc146103c1578063e2d8a80c146103dd578063e9561fd514610410578063f851a44014610440578063fd61514a1461045e57610137565b80637449c3ec146102d75780637ef958ad146103075780639c1e08aa14610323578063a9583c221461033f578063ae834de01461037257610137565b806337386169116100ff57806337386169146101dc57806340d3226f1461021157806347e889151461024557806358bbd7c41461027557806372153884146102a557610137565b80630e5fa1a91461013c57806311dc9eed1461015857806317acffb51461017457806327758dbc146101a45780632b41503b146101c0575b600080fd5b61015660048036036101519190810190612730565b61048e565b005b610172600480360361016d9190810190612ac4565b6105db565b005b61018e6004803603610189919081019061282f565b610776565b60405161019b9190612f98565b60405180910390f35b6101be60048036036101b99190810190612917565b610872565b005b6101da60048036036101d59190810190612685565b610951565b005b6101f660048036036101f19190810190612603565b610b96565b604051610208969594939291906130ac565b60405180910390f35b61022b60048036036102269190810190612603565b610e55565b60405161023c959493929190612fdc565b60405180910390f35b61025f600480360361025a9190810190612644565b611199565b60405161026c9190612f98565b60405180910390f35b61028f600480360361028a919081019061258b565b6112a0565b60405161029c91906131fc565b60405180910390f35b6102bf60048036036102ba919081019061282f565b6112b8565b6040516102ce93929190612f61565b60405180910390f35b6102f160048036036102ec91908101906127db565b611302565b6040516102fe9190612fba565b60405180910390f35b610321600480360361031c9190810190612996565b6113de565b005b61033d600480360361033891908101906125b4565b611629565b005b6103596004803603610354919081019061258b565b611848565b6040516103699493929190612f07565b60405180910390f35b61038c60048036036103879190810190612603565b611a60565b60405161039c9493929190613052565b60405180910390f35b6103bf60048036036103ba9190810190612bad565b611c6e565b005b6103db60048036036103d69190810190612858565b611df9565b005b6103f760048036036103f29190810190612603565b611fbb565b6040516104079493929190613129565b60405180910390f35b61042a600480360361042591908101906127db565b612131565b6040516104379190612fba565b60405180910390f35b61044861220d565b6040516104559190612eec565b60405180910390f35b61047860048036036104739190810190612c40565b612232565b6040516104859190612fba565b60405180910390f35b3373ffffffffffffffffffffffffffffffffffffffff166008600084815260200190815260200160002060000160009054906101000a900473ffffffffffffffffffffffffffffffffffffffff1673ffffffffffffffffffffffffffffffffffffffff1614610532576040517f08c379a00000000000000000000000000000000000000000000000000000000081526004016105299061319c565b60405180910390fd5b6040518060800160405280858152602001848152602001838152602001828152506007856040516105639190612ed5565b9081526020016040518091039020600082015181600001908051906020019061058d9291906122f8565b5060208201518160010190805190602001906105aa9291906122f8565b506040820151816002015560608201518160030190805190602001906105d19291906122f8565b5090505050505050565b3373ffffffffffffffffffffffffffffffffffffffff166008600088815260200190815260200160002060000160009054906101000a900473ffffffffffffffffffffffffffffffffffffffff1673ffffffffffffffffffffffffffffffffffffffff161461067f576040517f08c379a00000000000000000000000000000000000000000000000000000000081526004016106769061319c565b60405180910390fd5b6040518060c00160405280868152602001858152602001848152602001838152602001828152602001600015158152506004856040516106bf9190612ed5565b908152602001604051809103902060008201518160000190805190602001906106e99291906122f8565b5060208201518160010190805190602001906107069291906122f8565b5060408201518160020155606082015181600301908051906020019061072d9291906122f8565b50608082015181600401908051906020019061074a9291906122f8565b5060a08201518160050160006101000a81548160ff021916908315150217905550905050505050505050565b606060016000838152602001908152602001600020805480602002602001604051908101604052809291908181526020016000905b82821015610867578382906000526020600020018054600181600116156101000203166002900480601f0160208091040260200160405190810160405280929190818152602001828054600181600116156101000203166002900480156108535780601f1061082857610100808354040283529160200191610853565b820191906000526020600020905b81548152906001019060200180831161083657829003601f168201915b5050505050815260200190600101906107ab565b505050509050919050565b3373ffffffffffffffffffffffffffffffffffffffff166008600085815260200190815260200160002060000160009054906101000a900473ffffffffffffffffffffffffffffffffffffffff1673ffffffffffffffffffffffffffffffffffffffff1614610916576040517f08c379a000000000000000000000000000000000000000000000000000000000815260040161090d9061319c565b60405180910390fd5b816004826040516109279190612ed5565b9081526020016040518091039020600401908051906020019061094b929190612378565b50505050565b3373ffffffffffffffffffffffffffffffffffffffff16600660003373ffffffffffffffffffffffffffffffffffffffff1673ffffffffffffffffffffffffffffffffffffffff16815260200190815260200160002060000160009054906101000a900473ffffffffffffffffffffffffffffffffffffffff1673ffffffffffffffffffffffffffffffffffffffff1614610a21576040517f08c379a0000000000000000000000000000000000000000000000000000000008152600401610a18906131dc565b60405180910390fd5b600660003373ffffffffffffffffffffffffffffffffffffffff1673ffffffffffffffffffffffffffffffffffffffff168152602001908152602001600020600101600385604051610a739190612ed5565b90815260200160405180910390206004019080546001816001161561010002031660029004610aa39291906123f8565b5080600483604051610ab59190612ed5565b908152602001604051809103902060050160006101000a81548160ff021916908315150217905550600115158115151415610b3f57600482604051610afa9190612ed5565b908152602001604051809103902060020154600584604051610b1c9190612ed5565b908152602001604051809103902060020160008282540192505081905550610b90565b600482604051610b4f9190612ed5565b908152602001604051809103902060020154600584604051610b719190612ed5565b9081526020016040518091039020600201600082825403925050819055505b50505050565b600481805160208101820180518482526020830160208501208183528095505050505050600091509050806000018054600181600116156101000203166002900480601f016020809104026020016040519081016040528092919081815260200182805460018160011615610100020316600290048015610c585780601f10610c2d57610100808354040283529160200191610c58565b820191906000526020600020905b815481529060010190602001808311610c3b57829003601f168201915b505050505090806001018054600181600116156101000203166002900480601f016020809104026020016040519081016040528092919081815260200182805460018160011615610100020316600290048015610cf65780601f10610ccb57610100808354040283529160200191610cf6565b820191906000526020600020905b815481529060010190602001808311610cd957829003601f168201915b505050505090806002015490806003018054600181600116156101000203166002900480601f016020809104026020016040519081016040528092919081815260200182805460018160011615610100020316600290048015610d9a5780601f10610d6f57610100808354040283529160200191610d9a565b820191906000526020600020905b815481529060010190602001808311610d7d57829003601f168201915b505050505090806004018054600181600116156101000203166002900480601f016020809104026020016040519081016040528092919081815260200182805460018160011615610100020316600290048015610e385780601f10610e0d57610100808354040283529160200191610e38565b820191906000526020600020905b815481529060010190602001808311610e1b57829003601f168201915b5050505050908060050160009054906101000a900460ff16905086565b600381805160208101820180518482526020830160208501208183528095505050505050600091509050806000018054600181600116156101000203166002900480601f016020809104026020016040519081016040528092919081815260200182805460018160011615610100020316600290048015610f175780601f10610eec57610100808354040283529160200191610f17565b820191906000526020600020905b815481529060010190602001808311610efa57829003601f168201915b505050505090806001018054600181600116156101000203166002900480601f016020809104026020016040519081016040528092919081815260200182805460018160011615610100020316600290048015610fb55780601f10610f8a57610100808354040283529160200191610fb5565b820191906000526020600020905b815481529060010190602001808311610f9857829003601f168201915b505050505090806002018054600181600116156101000203166002900480601f0160208091040260200160405190810160405280929190818152602001828054600181600116156101000203166002900480156110535780601f1061102857610100808354040283529160200191611053565b820191906000526020600020905b81548152906001019060200180831161103657829003601f168201915b505050505090806003018054600181600116156101000203166002900480601f0160208091040260200160405190810160405280929190818152602001828054600181600116156101000203166002900480156110f15780601f106110c6576101008083540402835291602001916110f1565b820191906000526020600020905b8154815290600101906020018083116110d457829003601f168201915b505050505090806004018054600181600116156101000203166002900480601f01602080910402602001604051908101604052809291908181526020018280546001816001161561010002031660029004801561118f5780601f106111645761010080835404028352916020019161118f565b820191906000526020600020905b81548152906001019060200180831161117257829003601f168201915b5050505050905085565b60606002826040516111ab9190612ed5565b9081526020016040518091039020805480602002602001604051908101604052809291908181526020016000905b82821015611295578382906000526020600020018054600181600116156101000203166002900480601f0160208091040260200160405190810160405280929190818152602001828054600181600116156101000203166002900480156112815780601f1061125657610100808354040283529160200191611281565b820191906000526020600020905b81548152906001019060200180831161126457829003601f168201915b5050505050815260200190600101906111d9565b505050509050919050565b60096020528060005260406000206000915090505481565b60086020528060005260406000206000915090508060000160009054906101000a900473ffffffffffffffffffffffffffffffffffffffff16908060010154908060020154905083565b600a82805160208101820180518482526020830160208501208183528095505050505050818154811061133157fe5b90600052602060002001600091509150508054600181600116156101000203166002900480601f0160208091040260200160405190810160405280929190818152602001828054600181600116156101000203166002900480156113d65780601f106113ab576101008083540402835291602001916113d6565b820191906000526020600020905b8154815290600101906020018083116113b957829003601f168201915b505050505081565b3373ffffffffffffffffffffffffffffffffffffffff166008600089815260200190815260200160002060000160009054906101000a900473ffffffffffffffffffffffffffffffffffffffff1673ffffffffffffffffffffffffffffffffffffffff1614611482576040517f08c379a00000000000000000000000000000000000000000000000000000000081526004016114799061319c565b60405180910390fd5b6040518060a00160405280848152602001858152602001838152602001828152602001604051806020016040528060008152508152506003856040516114c89190612ed5565b908152602001604051809103902060008201518160000190805190602001906114f29291906122f8565b50602082015181600101908051906020019061150f9291906122f8565b50604082015181600201908051906020019061152c9291906122f8565b5060608201518160030190805190602001906115499291906122f8565b5060808201518160040190805190602001906115669291906122f8565b50905050600a8560405161157a9190612ed5565b90815260200160405180910390208490806001815401808255809150509060018203906000526020600020016000909192909190915090805190602001906115c3929190612378565b50506002866040516115d59190612ed5565b908152602001604051809103902084908060018154018082558091505090600182039060005260206000200160009091929091909150908051906020019061161e929190612378565b505050505050505050565b3373ffffffffffffffffffffffffffffffffffffffff166000809054906101000a900473ffffffffffffffffffffffffffffffffffffffff1673ffffffffffffffffffffffffffffffffffffffff16146116b8576040517f08c379a00000000000000000000000000000000000000000000000000000000081526004016116af9061317c565b60405180910390fd5b600073ffffffffffffffffffffffffffffffffffffffff166008600083815260200190815260200160002060000160009054906101000a900473ffffffffffffffffffffffffffffffffffffffff1673ffffffffffffffffffffffffffffffffffffffff161461175d576040517f08c379a0000000000000000000000000000000000000000000000000000000008152600401611754906131bc565b60405180910390fd5b60405180606001604052808473ffffffffffffffffffffffffffffffffffffffff168152602001838152602001828152506008600083815260200190815260200160002060008201518160000160006101000a81548173ffffffffffffffffffffffffffffffffffffffff021916908373ffffffffffffffffffffffffffffffffffffffff160217905550602082015181600101556040820151816002015590505080600960008573ffffffffffffffffffffffffffffffffffffffff1673ffffffffffffffffffffffffffffffffffffffff16815260200190815260200160002081905550505050565b60066020528060005260406000206000915090508060000160009054906101000a900473ffffffffffffffffffffffffffffffffffffffff1690806001018054600181600116156101000203166002900480601f01602080910402602001604051908101604052809291908181526020018280546001816001161561010002031660029004801561191a5780601f106118ef5761010080835404028352916020019161191a565b820191906000526020600020905b8154815290600101906020018083116118fd57829003601f168201915b505050505090806002018054600181600116156101000203166002900480601f0160208091040260200160405190810160405280929190818152602001828054600181600116156101000203166002900480156119b85780601f1061198d576101008083540402835291602001916119b8565b820191906000526020600020905b81548152906001019060200180831161199b57829003601f168201915b505050505090806003018054600181600116156101000203166002900480601f016020809104026020016040519081016040528092919081815260200182805460018160011615610100020316600290048015611a565780601f10611a2b57610100808354040283529160200191611a56565b820191906000526020600020905b815481529060010190602001808311611a3957829003601f168201915b5050505050905084565b600781805160208101820180518482526020830160208501208183528095505050505050600091509050806000018054600181600116156101000203166002900480601f016020809104026020016040519081016040528092919081815260200182805460018160011615610100020316600290048015611b225780601f10611af757610100808354040283529160200191611b22565b820191906000526020600020905b815481529060010190602001808311611b0557829003601f168201915b505050505090806001018054600181600116156101000203166002900480601f016020809104026020016040519081016040528092919081815260200182805460018160011615610100020316600290048015611bc05780601f10611b9557610100808354040283529160200191611bc0565b820191906000526020600020905b815481529060010190602001808311611ba357829003601f168201915b505050505090806002015490806003018054600181600116156101000203166002900480601f016020809104026020016040519081016040528092919081815260200182805460018160011615610100020316600290048015611c645780601f10611c3957610100808354040283529160200191611c64565b820191906000526020600020905b815481529060010190602001808311611c4757829003601f168201915b5050505050905084565b3373ffffffffffffffffffffffffffffffffffffffff166008600086815260200190815260200160002060000160009054906101000a900473ffffffffffffffffffffffffffffffffffffffff1673ffffffffffffffffffffffffffffffffffffffff1614611d12576040517f08c379a0000000000000000000000000000000000000000000000000000000008152600401611d099061319c565b60405180910390fd5b60405180608001604052808481526020018381526020016000815260200182815250600584604051611d449190612ed5565b90815260200160405180910390206000820151816000019080519060200190611d6e9291906122f8565b5060208201518160010155604082015181600201556060820151816003019080519060200190611d9f9291906122f8565b5090505060016000858152602001908152602001600020839080600181540180825580915050906001820390600052602060002001600090919290919091509080519060200190611df1929190612378565b505050505050565b3373ffffffffffffffffffffffffffffffffffffffff166008600087815260200190815260200160002060000160009054906101000a900473ffffffffffffffffffffffffffffffffffffffff1673ffffffffffffffffffffffffffffffffffffffff1614611e9d576040517f08c379a0000000000000000000000000000000000000000000000000000000008152600401611e949061319c565b60405180910390fd5b60405180608001604052808573ffffffffffffffffffffffffffffffffffffffff16815260200184815260200183815260200182815250600660008673ffffffffffffffffffffffffffffffffffffffff1673ffffffffffffffffffffffffffffffffffffffff16815260200190815260200160002060008201518160000160006101000a81548173ffffffffffffffffffffffffffffffffffffffff021916908373ffffffffffffffffffffffffffffffffffffffff1602179055506020820151816001019080519060200190611f769291906122f8565b506040820151816002019080519060200190611f939291906122f8565b506060820151816003019080519060200190611fb09291906122f8565b509050505050505050565b600581805160208101820180518482526020830160208501208183528095505050505050600091509050806000018054600181600116156101000203166002900480601f01602080910402602001604051908101604052809291908181526020018280546001816001161561010002031660029004801561207d5780601f106120525761010080835404028352916020019161207d565b820191906000526020600020905b81548152906001019060200180831161206057829003601f168201915b505050505090806001015490806002015490806003018054600181600116156101000203166002900480601f0160208091040260200160405190810160405280929190818152602001828054600181600116156101000203166002900480156121275780601f106120fc57610100808354040283529160200191612127565b820191906000526020600020905b81548152906001019060200180831161210a57829003601f168201915b5050505050905084565b600282805160208101820180518482526020830160208501208183528095505050505050818154811061216057fe5b90600052602060002001600091509150508054600181600116156101000203166002900480601f0160208091040260200160405190810160405280929190818152602001828054600181600116156101000203166002900480156122055780601f106121da57610100808354040283529160200191612205565b820191906000526020600020905b8154815290600101906020018083116121e857829003601f168201915b505050505081565b6000809054906101000a900473ffffffffffffffffffffffffffffffffffffffff1681565b6001602052816000526040600020818154811061224b57fe5b90600052602060002001600091509150508054600181600116156101000203166002900480601f0160208091040260200160405190810160405280929190818152602001828054600181600116156101000203166002900480156122f05780601f106122c5576101008083540402835291602001916122f0565b820191906000526020600020905b8154815290600101906020018083116122d357829003601f168201915b505050505081565b828054600181600116156101000203166002900490600052602060002090601f016020900481019282601f1061233957805160ff1916838001178555612367565b82800160010185558215612367579182015b8281111561236657825182559160200191906001019061234b565b5b509050612374919061247f565b5090565b828054600181600116156101000203166002900490600052602060002090601f016020900481019282601f106123b957805160ff19168380011785556123e7565b828001600101855582156123e7579182015b828111156123e65782518255916020019190600101906123cb565b5b5090506123f4919061247f565b5090565b828054600181600116156101000203166002900490600052602060002090601f016020900481019282601f10612431578054855561246e565b8280016001018555821561246e57600052602060002091601f016020900482015b8281111561246d578254825591600101919060010190612452565b5b50905061247b919061247f565b5090565b6124a191905b8082111561249d576000816000905550600101612485565b5090565b90565b6000813590506124b3816133b3565b92915050565b6000813590506124c8816133ca565b92915050565b600082601f8301126124df57600080fd5b81356124f26124ed82613244565b613217565b9150808252602083016020830185838301111561250e57600080fd5b612519838284613360565b50505092915050565b600082601f83011261253357600080fd5b813561254661254182613270565b613217565b9150808252602083016020830185838301111561256257600080fd5b61256d838284613360565b50505092915050565b600081359050612585816133e1565b92915050565b60006020828403121561259d57600080fd5b60006125ab848285016124a4565b91505092915050565b6000806000606084860312156125c957600080fd5b60006125d7868287016124a4565b93505060206125e886828701612576565b92505060406125f986828701612576565b9150509250925092565b60006020828403121561261557600080fd5b600082013567ffffffffffffffff81111561262f57600080fd5b61263b848285016124ce565b91505092915050565b60006020828403121561265657600080fd5b600082013567ffffffffffffffff81111561267057600080fd5b61267c84828501612522565b91505092915050565b6000806000806080858703121561269b57600080fd5b600085013567ffffffffffffffff8111156126b557600080fd5b6126c187828801612522565b945050602085013567ffffffffffffffff8111156126de57600080fd5b6126ea87828801612522565b935050604085013567ffffffffffffffff81111561270757600080fd5b61271387828801612522565b9250506060612724878288016124b9565b91505092959194509250565b6000806000806080858703121561274657600080fd5b600085013567ffffffffffffffff81111561276057600080fd5b61276c87828801612522565b945050602085013567ffffffffffffffff81111561278957600080fd5b61279587828801612522565b93505060406127a687828801612576565b925050606085013567ffffffffffffffff8111156127c357600080fd5b6127cf87828801612522565b91505092959194509250565b600080604083850312156127ee57600080fd5b600083013567ffffffffffffffff81111561280857600080fd5b612814858286016124ce565b925050602061282585828601612576565b9150509250929050565b60006020828403121561284157600080fd5b600061284f84828501612576565b91505092915050565b600080600080600060a0868803121561287057600080fd5b600061287e88828901612576565b955050602061288f888289016124a4565b945050604086013567ffffffffffffffff8111156128ac57600080fd5b6128b888828901612522565b935050606086013567ffffffffffffffff8111156128d557600080fd5b6128e188828901612522565b925050608086013567ffffffffffffffff8111156128fe57600080fd5b61290a88828901612522565b9150509295509295909350565b60008060006060848603121561292c57600080fd5b600061293a86828701612576565b935050602084013567ffffffffffffffff81111561295757600080fd5b61296386828701612522565b925050604084013567ffffffffffffffff81111561298057600080fd5b61298c86828701612522565b9150509250925092565b600080600080600080600060e0888a0312156129b157600080fd5b60006129bf8a828b01612576565b975050602088013567ffffffffffffffff8111156129dc57600080fd5b6129e88a828b01612522565b965050604088013567ffffffffffffffff811115612a0557600080fd5b612a118a828b01612522565b955050606088013567ffffffffffffffff811115612a2e57600080fd5b612a3a8a828b01612522565b945050608088013567ffffffffffffffff811115612a5757600080fd5b612a638a828b01612522565b93505060a088013567ffffffffffffffff811115612a8057600080fd5b612a8c8a828b01612522565b92505060c088013567ffffffffffffffff811115612aa957600080fd5b612ab58a828b01612522565b91505092959891949750929550565b60008060008060008060c08789031215612add57600080fd5b6000612aeb89828a01612576565b965050602087013567ffffffffffffffff811115612b0857600080fd5b612b1489828a01612522565b955050604087013567ffffffffffffffff811115612b3157600080fd5b612b3d89828a01612522565b9450506060612b4e89828a01612576565b935050608087013567ffffffffffffffff811115612b6b57600080fd5b612b7789828a01612522565b92505060a087013567ffffffffffffffff811115612b9457600080fd5b612ba089828a01612522565b9150509295509295509295565b60008060008060808587031215612bc357600080fd5b6000612bd187828801612576565b945050602085013567ffffffffffffffff811115612bee57600080fd5b612bfa87828801612522565b9350506040612c0b87828801612576565b925050606085013567ffffffffffffffff811115612c2857600080fd5b612c3487828801612522565b91505092959194509250565b60008060408385031215612c5357600080fd5b6000612c6185828601612576565b9250506020612c7285828601612576565b9150509250929050565b6000612c888383612d54565b905092915050565b612c9981613318565b82525050565b6000612caa826132ac565b612cb481856132da565b935083602082028501612cc68561329c565b8060005b85811015612d025784840389528151612ce38582612c7c565b9450612cee836132cd565b925060208a01995050600181019050612cca565b50829750879550505050505092915050565b612d1d8161332a565b82525050565b6000612d2e826132c2565b612d38818561330d565b9350612d4881856020860161336f565b80840191505092915050565b6000612d5f826132b7565b612d6981856132eb565b9350612d7981856020860161336f565b612d82816133a2565b840191505092915050565b6000612d98826132b7565b612da281856132fc565b9350612db281856020860161336f565b612dbb816133a2565b840191505092915050565b6000612dd3600e836132fc565b91507f4163636573732044656e696564210000000000000000000000000000000000006000830152602082019050919050565b6000612e13600d836132fc565b91507f4163636573732044656e696564000000000000000000000000000000000000006000830152602082019050919050565b6000612e53601d836132fc565b91507f4c6f63616c2041646d696e20494420616c7265616479206578697374210000006000830152602082019050919050565b6000612e93600d836132fc565b91507f4163636573732064656e696564000000000000000000000000000000000000006000830152602082019050919050565b612ecf81613356565b82525050565b6000612ee18284612d23565b915081905092915050565b6000602082019050612f016000830184612c90565b92915050565b6000608082019050612f1c6000830187612c90565b8181036020830152612f2e8186612d8d565b90508181036040830152612f428185612d8d565b90508181036060830152612f568184612d8d565b905095945050505050565b6000606082019050612f766000830186612c90565b612f836020830185612ec6565b612f906040830184612ec6565b949350505050565b60006020820190508181036000830152612fb28184612c9f565b905092915050565b60006020820190508181036000830152612fd48184612d8d565b905092915050565b600060a0820190508181036000830152612ff68188612d8d565b9050818103602083015261300a8187612d8d565b9050818103604083015261301e8186612d8d565b905081810360608301526130328185612d8d565b905081810360808301526130468184612d8d565b90509695505050505050565b6000608082019050818103600083015261306c8187612d8d565b905081810360208301526130808186612d8d565b905061308f6040830185612ec6565b81810360608301526130a18184612d8d565b905095945050505050565b600060c08201905081810360008301526130c68189612d8d565b905081810360208301526130da8188612d8d565b90506130e96040830187612ec6565b81810360608301526130fb8186612d8d565b9050818103608083015261310f8185612d8d565b905061311e60a0830184612d14565b979650505050505050565b600060808201905081810360008301526131438187612d8d565b90506131526020830186612ec6565b61315f6040830185612ec6565b81810360608301526131718184612d8d565b905095945050505050565b6000602082019050818103600083015261319581612dc6565b9050919050565b600060208201905081810360008301526131b581612e06565b9050919050565b600060208201905081810360008301526131d581612e46565b9050919050565b600060208201905081810360008301526131f581612e86565b9050919050565b60006020820190506132116000830184612ec6565b92915050565b6000604051905081810181811067ffffffffffffffff8211171561323a57600080fd5b8060405250919050565b600067ffffffffffffffff82111561325b57600080fd5b601f19601f8301169050602081019050919050565b600067ffffffffffffffff82111561328757600080fd5b601f19601f8301169050602081019050919050565b6000819050602082019050919050565b600081519050919050565b600081519050919050565b600081519050919050565b6000602082019050919050565b600082825260208201905092915050565b600082825260208201905092915050565b600082825260208201905092915050565b600081905092915050565b600061332382613336565b9050919050565b60008115159050919050565b600073ffffffffffffffffffffffffffffffffffffffff82169050919050565b6000819050919050565b82818337600083830152505050565b60005b8381101561338d578082015181840152602081019050613372565b8381111561339c576000848401525b50505050565b6000601f19601f8301169050919050565b6133bc81613318565b81146133c757600080fd5b50565b6133d38161332a565b81146133de57600080fd5b50565b6133ea81613356565b81146133f557600080fd5b5056fea365627a7a7231582071c1574d57fcd84945b86ba400f2b2a3488bfcb6796db17d1e0bf1054d09378b6c6578706572696d656e74616cf564736f6c63430005100040",
  "source": "pragma solidity ^0.5.0;\r\npragma experimental ABIEncoderV2;\r\n\r\ncontract Main\r\n{\r\n    address public admin;\r\n    struct localAdmin\r\n    {\r\n        address ladminadd;\r\n        uint aadhaar;\r\n        uint pincode;\r\n    }\r\n    struct Reporter\r\n    {\r\n        string repId;\r\n        string Name;\r\n        uint assigned_pincode;\r\n        string family;\r\n    }\r\n    struct Doctor\r\n    {\r\n        address docAdd;\r\n        string name;\r\n        string workPlace;\r\n        string family;\r\n    }\r\n    struct HealthRecord\r\n    {\r\n        string temperature;\r\n        string id;\r\n        string date;\r\n        string description;\r\n        string doc;\r\n    }\r\n    struct Family\r\n    {\r\n        string name;\r\n        string id;\r\n        uint count;\r\n        string homeFlat;\r\n        string currentFlat;\r\n        bool infection;\r\n    }\r\n    struct Flat\r\n    {\r\n        string id;\r\n        uint total;\r\n        uint active;\r\n        string coords;\r\n    }\r\n    mapping(uint=>string[]) public flatsByPincode;\r\n    mapping(string=>string[]) public HealthRecordsByFlat;\r\n    mapping(string=>HealthRecord) public healthRecords;\r\n    mapping(string=>Family) public families;\r\n    mapping(string=>Flat) public flats;\r\n    mapping(address=>Doctor) public doctors;\r\n    mapping(string=>Reporter) public reporters;\r\n    mapping(uint=>localAdmin) public lAdmins;\r\n    mapping(address=>uint) public lAdminPincodes;\r\n    mapping(string=>string[]) public familyHealthRecords;\r\n    constructor() public\r\n    {\r\n        admin=msg.sender;\r\n    }\r\n\r\n    function createLocalAdmin(address _address,uint _aadhaar,uint _pincode) public\r\n    {\r\n        require(admin==msg.sender,\"Access Denied!\");\r\n        require(lAdmins[_pincode].ladminadd==address(0),\"Local Admin ID already exist!\");\r\n        lAdmins[_pincode]=localAdmin(_address,_aadhaar,_pincode);\r\n        lAdminPincodes[_address]=_pincode;\r\n    }\r\n    function createReporter(string memory _id,string memory _name,uint _pincode,string memory _famid) public\r\n    {\r\n        require(lAdmins[_pincode].ladminadd==msg.sender,\"Access Denied\");\r\n        reporters[_id]=Reporter(_id,_name,_pincode,_famid);\r\n    }\r\n    function createDoctor(uint _pincode,address _address,string memory _name,string memory _workarea,string memory _famid) public\r\n    {\r\n        require(lAdmins[_pincode].ladminadd==msg.sender,\"Access Denied\");\r\n        doctors[_address]=Doctor(_address,_name,_workarea,_famid);\r\n    }\r\n    function createFamily(uint _pincode,string memory _name,string memory _id,uint _count,string memory _home,string memory _curr) public\r\n    {\r\n        require(lAdmins[_pincode].ladminadd==msg.sender,\"Access Denied\");\r\n        families[_id]=Family(_name,_id,_count,_home,_curr,false);\r\n    }\r\n    function createFlat(uint _pincode,string memory _id,uint _total,string memory _coords) public\r\n    {\r\n        require(lAdmins[_pincode].ladminadd==msg.sender,\"Access Denied\");\r\n        flats[_id]=Flat(_id,_total,0,_coords);\r\n        flatsByPincode[_pincode].push(_id);\r\n    }\r\n    function getFlatsByPin(uint _pincode) public view returns(string [] memory)\r\n    {\r\n        return(flatsByPincode[_pincode]);\r\n    }\r\n    function getHealthRecordsByFlat(string memory _flat) public view returns(string [] memory)\r\n    {\r\n        return(HealthRecordsByFlat[_flat]);\r\n    }\r\n    function createHealthRecord(uint _pincode,string memory _flat,string memory _family,string memory _id,string memory _temp,string memory _date,string memory _desc) public\r\n    {\r\n        require(lAdmins[_pincode].ladminadd==msg.sender,\"Access Denied\");\r\n        healthRecords[_id]=HealthRecord(_temp,_id,_date,_desc,'');\r\n        familyHealthRecords[_family].push(_id);\r\n        HealthRecordsByFlat[_flat].push(_id);\r\n    }\r\n    function flagCovidStatus(string memory _hId,string memory _flat,string memory _family,bool _stat) public\r\n    {\r\n        require(doctors[msg.sender].docAdd==msg.sender,\"Access denied\");\r\n        healthRecords[_hId].doc=doctors[msg.sender].name;\r\n        families[_family].infection=_stat;\r\n        if(_stat==true){\r\n            flats[_flat].active+=families[_family].count;\r\n        }\r\n        else\r\n        {\r\n            flats[_flat].active-=families[_family].count;\r\n        }\r\n    }\r\n    function relocation(uint _pincode,string memory _newLocation,string memory _id) public\r\n    {\r\n         require(lAdmins[_pincode].ladminadd==msg.sender,\"Access Denied\");\r\n         families[_id].currentFlat=_newLocation;\r\n    }\r\n\r\n}\r\n",
  "sourcePath": "C:/Users/tamil/Desktop/Decentralized_Covid_Tracker/src/contracts/Main.sol",
  "compiler": {
    "name": "solc",
    "version": "0.5.16+commit.9c3226ce.Emscripten.clang"
  },
  "schemaVersion": "3.2.3",
  "updatedAt": "2020-09-20T01:59:17.526Z",
  "networkType": "ethereum",
  "devdoc": {
    "methods": {}
  },
  "userdoc": {
    "methods": {}
  }
}